{
  "contractName": "Blocketplace",
  "abi": [
    {
      "inputs": [
        {
          "internalType": "address",
          "name": "bktAddress",
          "type": "address"
        }
      ],
      "stateMutability": "payable",
      "type": "constructor",
      "payable": true
    },
    {
      "anonymous": false,
      "inputs": [
        {
          "indexed": false,
          "internalType": "uint256",
          "name": "amount",
          "type": "uint256"
        }
      ],
      "name": "BoughtTokens",
      "type": "event"
    },
    {
      "anonymous": false,
      "inputs": [
        {
          "indexed": false,
          "internalType": "address",
          "name": "payer",
          "type": "address"
        },
        {
          "indexed": false,
          "internalType": "uint256",
          "name": "amount",
          "type": "uint256"
        },
        {
          "indexed": false,
          "internalType": "enum Blocketplace.PaymentStatus",
          "name": "paymentStatus",
          "type": "uint8"
        }
      ],
      "name": "PaymentDone",
      "type": "event"
    },
    {
      "anonymous": false,
      "inputs": [
        {
          "indexed": false,
          "internalType": "address",
          "name": "payer",
          "type": "address"
        },
        {
          "indexed": false,
          "internalType": "uint256",
          "name": "amount",
          "type": "uint256"
        },
        {
          "indexed": false,
          "internalType": "string",
          "name": "orderId",
          "type": "string"
        },
        {
          "indexed": false,
          "internalType": "enum Blocketplace.PaymentStatus",
          "name": "paymentStatus",
          "type": "uint8"
        }
      ],
      "name": "PaymentDone",
      "type": "event"
    },
    {
      "inputs": [],
      "name": "bkt",
      "outputs": [
        {
          "internalType": "contract IERC20",
          "name": "",
          "type": "address"
        }
      ],
      "stateMutability": "view",
      "type": "function",
      "constant": true
    },
    {
      "inputs": [
        {
          "internalType": "address",
          "name": "addr",
          "type": "address"
        }
      ],
      "name": "registerUser",
      "outputs": [],
      "stateMutability": "nonpayable",
      "type": "function"
    },
    {
      "inputs": [
        {
          "internalType": "string",
          "name": "memberName",
          "type": "string"
        }
      ],
      "name": "registerUserAsSeller",
      "outputs": [],
      "stateMutability": "payable",
      "type": "function",
      "payable": true
    },
    {
      "inputs": [],
      "name": "isUserSeller",
      "outputs": [
        {
          "internalType": "bool",
          "name": "",
          "type": "bool"
        }
      ],
      "stateMutability": "view",
      "type": "function",
      "constant": true
    },
    {
      "inputs": [],
      "name": "getSellerBalance",
      "outputs": [
        {
          "internalType": "uint256",
          "name": "",
          "type": "uint256"
        }
      ],
      "stateMutability": "view",
      "type": "function",
      "constant": true
    },
    {
      "inputs": [],
      "name": "getSomethingBalance",
      "outputs": [
        {
          "internalType": "uint256",
          "name": "",
          "type": "uint256"
        }
      ],
      "stateMutability": "view",
      "type": "function",
      "constant": true
    },
    {
      "inputs": [
        {
          "internalType": "string",
          "name": "orderId",
          "type": "string"
        }
      ],
      "name": "getOrderStatus",
      "outputs": [
        {
          "internalType": "enum Blocketplace.PaymentStatus",
          "name": "",
          "type": "uint8"
        }
      ],
      "stateMutability": "view",
      "type": "function",
      "constant": true
    },
    {
      "inputs": [],
      "name": "buy",
      "outputs": [],
      "stateMutability": "payable",
      "type": "function",
      "payable": true
    },
    {
      "inputs": [],
      "name": "withdrawBalance",
      "outputs": [],
      "stateMutability": "payable",
      "type": "function",
      "payable": true
    },
    {
      "inputs": [
        {
          "internalType": "address payable",
          "name": "userAddress",
          "type": "address"
        }
      ],
      "name": "unregisterUser",
      "outputs": [],
      "stateMutability": "payable",
      "type": "function",
      "payable": true
    },
    {
      "inputs": [
        {
          "internalType": "address",
          "name": "addr",
          "type": "address"
        }
      ],
      "name": "getBalance",
      "outputs": [
        {
          "internalType": "uint256",
          "name": "",
          "type": "uint256"
        }
      ],
      "stateMutability": "view",
      "type": "function",
      "constant": true
    },
    {
      "inputs": [],
      "name": "getBalanceSC",
      "outputs": [
        {
          "internalType": "uint256",
          "name": "",
          "type": "uint256"
        }
      ],
      "stateMutability": "view",
      "type": "function",
      "constant": true
    },
    {
      "inputs": [
        {
          "internalType": "address",
          "name": "addr1",
          "type": "address"
        },
        {
          "internalType": "address",
          "name": "addr2",
          "type": "address"
        }
      ],
      "name": "getAllowance",
      "outputs": [
        {
          "internalType": "uint256",
          "name": "",
          "type": "uint256"
        }
      ],
      "stateMutability": "view",
      "type": "function",
      "constant": true
    },
    {
      "inputs": [
        {
          "internalType": "address payable",
          "name": "sellerAddr",
          "type": "address"
        },
        {
          "internalType": "string",
          "name": "orderId",
          "type": "string"
        },
        {
          "internalType": "string",
          "name": "productId",
          "type": "string"
        },
        {
          "internalType": "string",
          "name": "productName",
          "type": "string"
        },
        {
          "internalType": "uint256",
          "name": "productPrice",
          "type": "uint256"
        },
        {
          "internalType": "uint256",
          "name": "paymentStatus",
          "type": "uint256"
        }
      ],
      "name": "payForOrder",
      "outputs": [],
      "stateMutability": "payable",
      "type": "function",
      "payable": true
    },
    {
      "inputs": [
        {
          "internalType": "address payable",
          "name": "sellerAddr",
          "type": "address"
        },
        {
          "internalType": "string",
          "name": "orderId",
          "type": "string"
        },
        {
          "internalType": "string",
          "name": "productId",
          "type": "string"
        },
        {
          "internalType": "string",
          "name": "productName",
          "type": "string"
        },
        {
          "internalType": "uint256",
          "name": "productPrice",
          "type": "uint256"
        },
        {
          "internalType": "enum Blocketplace.PaymentStatus",
          "name": "paymentStatus",
          "type": "uint8"
        }
      ],
      "name": "payAmountForOrder",
      "outputs": [],
      "stateMutability": "payable",
      "type": "function",
      "payable": true
    },
    {
      "inputs": [
        {
          "internalType": "string",
          "name": "orderId",
          "type": "string"
        },
        {
          "internalType": "address payable",
          "name": "buyerAddress",
          "type": "address"
        }
      ],
      "name": "refund",
      "outputs": [],
      "stateMutability": "payable",
      "type": "function",
      "payable": true
    }
  ],
  "bytecode": "0x6080604052604051620037083803806200370883398181016040528101906200002991906200010a565b33600360006101000a81548173ffffffffffffffffffffffffffffffffffffffff021916908373ffffffffffffffffffffffffffffffffffffffff16021790555080600660006101000a81548173ffffffffffffffffffffffffffffffffffffffff021916908373ffffffffffffffffffffffffffffffffffffffff16021790555080600560006101000a81548173ffffffffffffffffffffffffffffffffffffffff021916908373ffffffffffffffffffffffffffffffffffffffff1602179055505062000184565b60008151905062000104816200016a565b92915050565b6000602082840312156200011d57600080fd5b60006200012d84828501620000f3565b91505092915050565b600062000143826200014a565b9050919050565b600073ffffffffffffffffffffffffffffffffffffffff82169050919050565b620001758162000136565b81146200018157600080fd5b50565b61357480620001946000396000f3fe6080604052600436106100f35760003560e01c806360997a111161008a578063aedfb5d311610059578063aedfb5d31461028e578063b32c9356146102cb578063c56d8056146102f6578063f8b2cb4f14610312576100f3565b806360997a111461022157806371cc805a1461023d5780637a9dae9614610259578063a6f2ae3a14610284576100f3565b806321f2ca3b116100c657806321f2ca3b146101a55780632e452342146101c15780634587fd37146101ec5780635fd8c71014610217576100f3565b80630af4187d146100f85780631e738b0b146101355780631ff6ff0a146101515780632199d5cd1461017c575b600080fd5b34801561010457600080fd5b5061011f600480360381019061011a91906125ee565b61034f565b60405161012c91906130bd565b60405180910390f35b61014f600480360381019061014a919061244c565b610406565b005b34801561015d57600080fd5b50610166610c8e565b6040516101739190612e8c565b60405180910390f35b34801561018857600080fd5b506101a3600480360381019061019e91906123fa565b610ce5565b005b6101bf60048036038101906101ba9190612423565b610e15565b005b3480156101cd57600080fd5b506101d6611202565b6040516101e391906130bd565b60405180910390f35b3480156101f857600080fd5b506102016112b4565b60405161020e9190612ea7565b60405180910390f35b61021f6112da565b005b61023b60048036038101906102369190612653565b611550565b005b61025760048036038101906102529190612694565b6117fa565b005b34801561026557600080fd5b5061026e611cc7565b60405161027b91906130bd565b60405180910390f35b61028c611da2565b005b34801561029a57600080fd5b506102b560048036038101906102b09190612653565b61200d565b6040516102c29190612ec2565b60405180910390f35b3480156102d757600080fd5b506102e0612045565b6040516102ed91906130bd565b60405180910390f35b610310600480360381019061030b919061251d565b6120f7565b005b34801561031e57600080fd5b50610339600480360381019061033491906123fa565b6121bd565b60405161034691906130bd565b60405180910390f35b6000600660009054906101000a900473ffffffffffffffffffffffffffffffffffffffff1673ffffffffffffffffffffffffffffffffffffffff1663dd62ed3e84846040518363ffffffff1660e01b81526004016103ae929190612df5565b60206040518083038186803b1580156103c657600080fd5b505afa1580156103da573d6000803e3d6000fd5b505050506040513d601f19601f820116820180604052508101906103fe91906126e8565b905092915050565b85600160008273ffffffffffffffffffffffffffffffffffffffff1673ffffffffffffffffffffffffffffffffffffffff16815260200190815260200160002060000160009054906101000a900460ff16610496576040517f08c379a000000000000000000000000000000000000000000000000000000000815260040161048d90612edd565b60405180910390fd5b6000600660009054906101000a900473ffffffffffffffffffffffffffffffffffffffff1673ffffffffffffffffffffffffffffffffffffffff1663dd62ed3e33306040518363ffffffff1660e01b81526004016104f5929190612df5565b60206040518083038186803b15801561050d57600080fd5b505afa158015610521573d6000803e3d6000fd5b505050506040513d601f19601f8201168201806040525081019061054591906126e8565b905060003490506000803373ffffffffffffffffffffffffffffffffffffffff1673ffffffffffffffffffffffffffffffffffffffff16815260200190815260200160002060009054906101000a900460ff166105d7576040517f08c379a00000000000000000000000000000000000000000000000000000000081526004016105ce90612f1d565b60405180910390fd5b6000851161061a576040517f08c379a000000000000000000000000000000000000000000000000000000000815260040161061190612f5d565b60405180910390fd5b8082101561065d576040517f08c379a00000000000000000000000000000000000000000000000000000000081526004016106549061305d565b60405180910390fd5b848210156106a0576040517f08c379a000000000000000000000000000000000000000000000000000000000815260040161069790612fdd565b60405180910390fd5b600160038111156106da577f4e487b7100000000000000000000000000000000000000000000000000000000600052602160045260246000fd5b846003811115610713577f4e487b7100000000000000000000000000000000000000000000000000000000600052602160045260246000fd5b141561075c5784811461075b576040517f08c379a00000000000000000000000000000000000000000000000000000000081526004016107529061303d565b60405180910390fd5b5b6000600a8261076b91906131b6565b905060098161077a91906131e7565b600160008c73ffffffffffffffffffffffffffffffffffffffff1673ffffffffffffffffffffffffffffffffffffffff16815260200190815260200160002060030160008282546107cb9190613160565b9250508190555080600460008282546107e49190613160565b92505081905550600660009054906101000a900473ffffffffffffffffffffffffffffffffffffffff1673ffffffffffffffffffffffffffffffffffffffff166323b872dd33600360009054906101000a900473ffffffffffffffffffffffffffffffffffffffff16856040518463ffffffff1660e01b815260040161086c93929190612e1e565b602060405180830381600087803b15801561088657600080fd5b505af115801561089a573d6000803e3d6000fd5b505050506040513d601f19601f820116820180604052508101906108be919061262a565b508760028a6040516108d09190612cc5565b908152602001604051809103902060000190805190602001906108f4929190612271565b508660028a6040516109069190612cc5565b9081526020016040518091039020600101908051906020019061092a929190612271565b508960028a60405161093c9190612cc5565b908152602001604051809103902060040160006101000a81548173ffffffffffffffffffffffffffffffffffffffff021916908373ffffffffffffffffffffffffffffffffffffffff1602179055503360028a60405161099c9190612cc5565b908152602001604051809103902060050160006101000a81548173ffffffffffffffffffffffffffffffffffffffff021916908373ffffffffffffffffffffffffffffffffffffffff16021790555060006003811115610a25577f4e487b7100000000000000000000000000000000000000000000000000000000600052602160045260246000fd5b856003811115610a5e577f4e487b7100000000000000000000000000000000000000000000000000000000600052602160045260246000fd5b1415610aa1578160028a604051610a759190612cc5565b90815260200160405180910390206003016000828254610a959190613160565b92505081905550610ac8565b8160028a604051610ab29190612cc5565b9081526020016040518091039020600301819055505b8560028a604051610ad99190612cc5565b9081526020016040518091039020600201819055508460028a604051610aff9190612cc5565b908152602001604051809103902060050160146101000a81548160ff02191690836003811115610b58577f4e487b7100000000000000000000000000000000000000000000000000000000600052602160045260246000fd5b02179055508560028a604051610b6e9190612cc5565b90815260200160405180910390206003015410610bf657600160028a604051610b979190612cc5565b908152602001604051809103902060050160146101000a81548160ff02191690836003811115610bf0577f4e487b7100000000000000000000000000000000000000000000000000000000600052602160045260246000fd5b02179055505b7fd339a2f13d5270409e3552e52f7c3b64f918d17ca285cf3656e9a1a8334ecfb18a60028b604051610c289190612cc5565b9081526020016040518091039020600301548b60028d604051610c4b9190612cc5565b908152602001604051809103902060050160149054906101000a900460ff16604051610c7a9493929190612da9565b60405180910390a150505050505050505050565b6000600160003373ffffffffffffffffffffffffffffffffffffffff1673ffffffffffffffffffffffffffffffffffffffff16815260200190815260200160002060000160009054906101000a900460ff16905090565b806000808273ffffffffffffffffffffffffffffffffffffffff1673ffffffffffffffffffffffffffffffffffffffff16815260200190815260200160002060009054906101000a900460ff1615610d72576040517f08c379a0000000000000000000000000000000000000000000000000000000008152600401610d699061309d565b60405180910390fd5b60016000808473ffffffffffffffffffffffffffffffffffffffff1673ffffffffffffffffffffffffffffffffffffffff16815260200190815260200160002060006101000a81548160ff0219169083151502179055506000600160008473ffffffffffffffffffffffffffffffffffffffff1673ffffffffffffffffffffffffffffffffffffffff168152602001908152602001600020600301819055505050565b600360009054906101000a900473ffffffffffffffffffffffffffffffffffffffff1673ffffffffffffffffffffffffffffffffffffffff163373ffffffffffffffffffffffffffffffffffffffff1614610ea5576040517f08c379a0000000000000000000000000000000000000000000000000000000008152600401610e9c9061301d565b60405180910390fd5b6000808273ffffffffffffffffffffffffffffffffffffffff1673ffffffffffffffffffffffffffffffffffffffff16815260200190815260200160002060009054906101000a900460ff16610f30576040517f08c379a0000000000000000000000000000000000000000000000000000000008152600401610f2790612f1d565b60405180910390fd5b60008060008373ffffffffffffffffffffffffffffffffffffffff1673ffffffffffffffffffffffffffffffffffffffff16815260200190815260200160002060006101000a81548160ff0219169083151502179055506000600160008373ffffffffffffffffffffffffffffffffffffffff1673ffffffffffffffffffffffffffffffffffffffff1681526020019081526020016000206001015490506000600160008473ffffffffffffffffffffffffffffffffffffffff1673ffffffffffffffffffffffffffffffffffffffff168152602001908152602001600020600301549050600081836110239190613160565b9050600660009054906101000a900473ffffffffffffffffffffffffffffffffffffffff1673ffffffffffffffffffffffffffffffffffffffff1663a9059cbb85836040518363ffffffff1660e01b8152600401611082929190612d49565b602060405180830381600087803b15801561109c57600080fd5b505af11580156110b0573d6000803e3d6000fd5b505050506040513d601f19601f820116820180604052508101906110d4919061262a565b506000600160008673ffffffffffffffffffffffffffffffffffffffff1673ffffffffffffffffffffffffffffffffffffffff16815260200190815260200160002060000160006101000a81548160ff0219169083151502179055506000600160008673ffffffffffffffffffffffffffffffffffffffff1673ffffffffffffffffffffffffffffffffffffffff168152602001908152602001600020600101819055506000600160008673ffffffffffffffffffffffffffffffffffffffff1673ffffffffffffffffffffffffffffffffffffffff168152602001908152602001600020600301819055507f71e6f4c1261be8e49b54ba2f1a50b233ab2530c69abcd4dbd8db3c424418843a848260036040516111f493929190612d72565b60405180910390a150505050565b6000600660009054906101000a900473ffffffffffffffffffffffffffffffffffffffff1673ffffffffffffffffffffffffffffffffffffffff166370a08231336040518263ffffffff1660e01b815260040161125f9190612cdc565b60206040518083038186803b15801561127757600080fd5b505afa15801561128b573d6000803e3d6000fd5b505050506040513d601f19601f820116820180604052508101906112af91906126e8565b905090565b600660009054906101000a900473ffffffffffffffffffffffffffffffffffffffff1681565b33600160008273ffffffffffffffffffffffffffffffffffffffff1673ffffffffffffffffffffffffffffffffffffffff16815260200190815260200160002060000160009054906101000a900460ff1661136a576040517f08c379a000000000000000000000000000000000000000000000000000000000815260040161136190612edd565b60405180910390fd5b6000600160003373ffffffffffffffffffffffffffffffffffffffff1673ffffffffffffffffffffffffffffffffffffffff168152602001908152602001600020600301549050600081116113f4576040517f08c379a00000000000000000000000000000000000000000000000000000000081526004016113eb90612fbd565b60405180910390fd5b600660009054906101000a900473ffffffffffffffffffffffffffffffffffffffff1673ffffffffffffffffffffffffffffffffffffffff166323b872dd600360009054906101000a900473ffffffffffffffffffffffffffffffffffffffff1633846040518463ffffffff1660e01b815260040161147593929190612d12565b602060405180830381600087803b15801561148f57600080fd5b505af11580156114a3573d6000803e3d6000fd5b505050506040513d601f19601f820116820180604052508101906114c7919061262a565b506000600160003373ffffffffffffffffffffffffffffffffffffffff1673ffffffffffffffffffffffffffffffffffffffff168152602001908152602001600020600301819055507f71e6f4c1261be8e49b54ba2f1a50b233ab2530c69abcd4dbd8db3c424418843a3382600360405161154493929190612e55565b60405180910390a15050565b6000803373ffffffffffffffffffffffffffffffffffffffff1673ffffffffffffffffffffffffffffffffffffffff16815260200190815260200160002060009054906101000a900460ff166115db576040517f08c379a00000000000000000000000000000000000000000000000000000000081526004016115d290612f1d565b60405180910390fd5b66038d7ea4c68000341015611625576040517f08c379a000000000000000000000000000000000000000000000000000000000815260040161161c90612f9d565b60405180910390fd5b600033905060018060008373ffffffffffffffffffffffffffffffffffffffff1673ffffffffffffffffffffffffffffffffffffffff16815260200190815260200160002060000160006101000a81548160ff02191690831515021790555081600160008373ffffffffffffffffffffffffffffffffffffffff1673ffffffffffffffffffffffffffffffffffffffff16815260200190815260200160002060020190805190602001906116da929190612271565b5034600160008373ffffffffffffffffffffffffffffffffffffffff1673ffffffffffffffffffffffffffffffffffffffff16815260200190815260200160002060010181905550600660009054906101000a900473ffffffffffffffffffffffffffffffffffffffff1673ffffffffffffffffffffffffffffffffffffffff166323b872dd33600360009054906101000a900473ffffffffffffffffffffffffffffffffffffffff16346040518463ffffffff1660e01b81526004016117a393929190612e1e565b602060405180830381600087803b1580156117bd57600080fd5b505af11580156117d1573d6000803e3d6000fd5b505050506040513d601f19601f820116820180604052508101906117f5919061262a565b505050565b60028260405161180a9190612cc5565b908152602001604051809103902060040160009054906101000a900473ffffffffffffffffffffffffffffffffffffffff1673ffffffffffffffffffffffffffffffffffffffff163373ffffffffffffffffffffffffffffffffffffffff16146118a9576040517f08c379a00000000000000000000000000000000000000000000000000000000081526004016118a090612f3d565b60405180910390fd5b60006002836040516118bb9190612cc5565b9081526020016040518091039020600301541161190d576040517f08c379a000000000000000000000000000000000000000000000000000000000815260040161190490612efd565b60405180910390fd5b600060028360405161191f9190612cc5565b90815260200160405180910390206003015490506009600a8261194291906131b6565b61194c91906131e7565b905060008190506000600381111561198d577f4e487b7100000000000000000000000000000000000000000000000000000000600052602160045260246000fd5b60028560405161199d9190612cc5565b908152602001604051809103902060050160149054906101000a900460ff1660038111156119f4577f4e487b7100000000000000000000000000000000000000000000000000000000600052602160045260246000fd5b1415611a1657605a606483611a0991906131b6565b611a1391906131e7565b90505b6000600660009054906101000a900473ffffffffffffffffffffffffffffffffffffffff1673ffffffffffffffffffffffffffffffffffffffff1663dd62ed3e33306040518363ffffffff1660e01b8152600401611a75929190612df5565b60206040518083038186803b158015611a8d57600080fd5b505afa158015611aa1573d6000803e3d6000fd5b505050506040513d601f19601f82011682018060405250810190611ac591906126e8565b905081811115611b0a576040517f08c379a0000000000000000000000000000000000000000000000000000000008152600401611b0190612f7d565b60405180910390fd5b600660009054906101000a900473ffffffffffffffffffffffffffffffffffffffff1673ffffffffffffffffffffffffffffffffffffffff166323b872dd3386856040518463ffffffff1660e01b8152600401611b6993929190612e1e565b602060405180830381600087803b158015611b8357600080fd5b505af1158015611b97573d6000803e3d6000fd5b505050506040513d601f19601f82011682018060405250810190611bbb919061262a565b5081600160003373ffffffffffffffffffffffffffffffffffffffff1673ffffffffffffffffffffffffffffffffffffffff1681526020019081526020016000206003016000828254611c0e9190613241565b9250508190555060028086604051611c269190612cc5565b908152602001604051809103902060050160146101000a81548160ff02191690836003811115611c7f577f4e487b7100000000000000000000000000000000000000000000000000000000600052602160045260246000fd5b02179055507f71e6f4c1261be8e49b54ba2f1a50b233ab2530c69abcd4dbd8db3c424418843a84836002604051611cb893929190612d72565b60405180910390a15050505050565b600033600160008273ffffffffffffffffffffffffffffffffffffffff1673ffffffffffffffffffffffffffffffffffffffff16815260200190815260200160002060000160009054906101000a900460ff16611d59576040517f08c379a0000000000000000000000000000000000000000000000000000000008152600401611d5090612edd565b60405180910390fd5b600160003373ffffffffffffffffffffffffffffffffffffffff1673ffffffffffffffffffffffffffffffffffffffff1681526020019081526020016000206003015491505090565b60003490506000600660009054906101000a900473ffffffffffffffffffffffffffffffffffffffff1673ffffffffffffffffffffffffffffffffffffffff166370a08231600360009054906101000a900473ffffffffffffffffffffffffffffffffffffffff166040518263ffffffff1660e01b8152600401611e269190612cf7565b60206040518083038186803b158015611e3e57600080fd5b505afa158015611e52573d6000803e3d6000fd5b505050506040513d601f19601f82011682018060405250810190611e7691906126e8565b905060008211611ebb576040517f08c379a0000000000000000000000000000000000000000000000000000000008152600401611eb290612ffd565b60405180910390fd5b80821115611efe576040517f08c379a0000000000000000000000000000000000000000000000000000000008152600401611ef59061307d565b60405180910390fd5b600660009054906101000a900473ffffffffffffffffffffffffffffffffffffffff1673ffffffffffffffffffffffffffffffffffffffff166323b872dd600360009054906101000a900473ffffffffffffffffffffffffffffffffffffffff1633856040518463ffffffff1660e01b8152600401611f7f93929190612d12565b602060405180830381600087803b158015611f9957600080fd5b505af1158015611fad573d6000803e3d6000fd5b505050506040513d601f19601f82011682018060405250810190611fd1919061262a565b507ffe1367e498701f2dfab80a3d41740d46fd7cba533430e611917f0f3df823279a8260405161200191906130bd565b60405180910390a15050565b600060028260405161201f9190612cc5565b908152602001604051809103902060050160149054906101000a900460ff169050919050565b6000600660009054906101000a900473ffffffffffffffffffffffffffffffffffffffff1673ffffffffffffffffffffffffffffffffffffffff166370a08231306040518263ffffffff1660e01b81526004016120a29190612cdc565b60206040518083038186803b1580156120ba57600080fd5b505afa1580156120ce573d6000803e3d6000fd5b505050506040513d601f19601f820116820180604052508101906120f291906126e8565b905090565b85600160008273ffffffffffffffffffffffffffffffffffffffff1673ffffffffffffffffffffffffffffffffffffffff16815260200190815260200160002060000160009054906101000a900460ff16612187576040517f08c379a000000000000000000000000000000000000000000000000000000000815260040161217e90612edd565b60405180910390fd5b60018214156121a45761219f87878787876000610406565b6121b4565b6121b387878787876001610406565b5b50505050505050565b6000600660009054906101000a900473ffffffffffffffffffffffffffffffffffffffff1673ffffffffffffffffffffffffffffffffffffffff166370a08231836040518263ffffffff1660e01b815260040161221a9190612cdc565b60206040518083038186803b15801561223257600080fd5b505afa158015612246573d6000803e3d6000fd5b505050506040513d601f19601f8201168201806040525081019061226a91906126e8565b9050919050565b82805461227d90613390565b90600052602060002090601f01602090048101928261229f57600085556122e6565b82601f106122b857805160ff19168380011785556122e6565b828001600101855582156122e6579182015b828111156122e55782518255916020019190600101906122ca565b5b5090506122f391906122f7565b5090565b5b808211156123105760008160009055506001016122f8565b5090565b600061232761232284613109565b6130d8565b90508281526020810184848401111561233f57600080fd5b61234a84828561334e565b509392505050565b600081359050612361816134d2565b92915050565b600081359050612376816134e9565b92915050565b60008151905061238b81613500565b92915050565b6000813590506123a081613517565b92915050565b600082601f8301126123b757600080fd5b81356123c7848260208601612314565b91505092915050565b6000813590506123df81613527565b92915050565b6000815190506123f481613527565b92915050565b60006020828403121561240c57600080fd5b600061241a84828501612352565b91505092915050565b60006020828403121561243557600080fd5b600061244384828501612367565b91505092915050565b60008060008060008060c0878903121561246557600080fd5b600061247389828a01612367565b965050602087013567ffffffffffffffff81111561249057600080fd5b61249c89828a016123a6565b955050604087013567ffffffffffffffff8111156124b957600080fd5b6124c589828a016123a6565b945050606087013567ffffffffffffffff8111156124e257600080fd5b6124ee89828a016123a6565b93505060806124ff89828a016123d0565b92505060a061251089828a01612391565b9150509295509295509295565b60008060008060008060c0878903121561253657600080fd5b600061254489828a01612367565b965050602087013567ffffffffffffffff81111561256157600080fd5b61256d89828a016123a6565b955050604087013567ffffffffffffffff81111561258a57600080fd5b61259689828a016123a6565b945050606087013567ffffffffffffffff8111156125b357600080fd5b6125bf89828a016123a6565b93505060806125d089828a016123d0565b92505060a06125e189828a016123d0565b9150509295509295509295565b6000806040838503121561260157600080fd5b600061260f85828601612352565b925050602061262085828601612352565b9150509250929050565b60006020828403121561263c57600080fd5b600061264a8482850161237c565b91505092915050565b60006020828403121561266557600080fd5b600082013567ffffffffffffffff81111561267f57600080fd5b61268b848285016123a6565b91505092915050565b600080604083850312156126a757600080fd5b600083013567ffffffffffffffff8111156126c157600080fd5b6126cd858286016123a6565b92505060206126de85828601612367565b9150509250929050565b6000602082840312156126fa57600080fd5b6000612708848285016123e5565b91505092915050565b61271a816132e2565b82525050565b61272981613275565b82525050565b61273881613299565b82525050565b612747816132f4565b82525050565b61275681613318565b82525050565b600061276782613139565b6127718185613144565b935061278181856020860161335d565b61278a816134ad565b840191505092915050565b60006127a082613139565b6127aa8185613155565b93506127ba81856020860161335d565b80840191505092915050565b60006127d3600c83613144565b91507f4e6f7420612053656c6c657200000000000000000000000000000000000000006000830152602082019050919050565b6000612813602483613144565b91507f416d6f756e7420506169642073686f756c64206265206772656174657220746860008301527f616e2030000000000000000000000000000000000000000000000000000000006020830152604082019050919050565b6000612879601383613144565b91507f55736572206e6f742072656769737465726564000000000000000000000000006000830152602082019050919050565b60006128b9600e83613144565b91507f53656c6c657220496e76616c69640000000000000000000000000000000000006000830152602082019050919050565b60006128f9602483613144565b91507f50726f64756374205072696365206d757374206265206772656174657220746860008301527f616e2030000000000000000000000000000000000000000000000000000000006020830152604082019050919050565b600061295f602783613144565b91507f56616c7565206d75737420626520657175616c20746f2053656e6420746f204360008301527f7573746f6d6572000000000000000000000000000000000000000000000000006020830152604082019050919050565b60006129c5602983613144565b91507f4465706f736974206d6f6e65792073686f756c642062652061746c656173742060008301527f302e3120457468657200000000000000000000000000000000000000000000006020830152604082019050919050565b6000612a2b602183613144565b91507f42616c616e6365206d7573742062652067726561746572207468616e207a657260008301527f6f000000000000000000000000000000000000000000000000000000000000006020830152604082019050919050565b6000612a91602883613144565b91507f416c6c6f77616e6365206d75737420626520657175616c20746f2050726f647560008301527f63742050726963650000000000000000000000000000000000000000000000006020830152604082019050919050565b6000612af7600f83613144565b91507f53656e6420736f6d6520657468657200000000000000000000000000000000006000830152602082019050919050565b6000612b37600d83613144565b91507f4e6f7420746865206f776e6572000000000000000000000000000000000000006000830152602082019050919050565b6000612b77602583613144565b91507f416d6f756e74206d75737420626520657175616c20746f2050726f647563742060008301527f50726963650000000000000000000000000000000000000000000000000000006020830152604082019050919050565b6000612bdd602883613144565b91507f416c6c6f77616e6365206d75737420626520657175616c20746f20416d6f756e60008301527f7420506179696e670000000000000000000000000000000000000000000000006020830152604082019050919050565b6000612c43601183613144565b91507f4e6f7420656e6f75676820746f6b656e730000000000000000000000000000006000830152602082019050919050565b6000612c83601a83613144565b91507f5573657220697320616c726561647920726567697374657265640000000000006000830152602082019050919050565b612cbf816132d8565b82525050565b6000612cd18284612795565b915081905092915050565b6000602082019050612cf16000830184612720565b92915050565b6000602082019050612d0c6000830184612711565b92915050565b6000606082019050612d276000830186612711565b612d346020830185612720565b612d416040830184612cb6565b949350505050565b6000604082019050612d5e6000830185612711565b612d6b6020830184612cb6565b9392505050565b6000606082019050612d876000830186612711565b612d946020830185612cb6565b612da1604083018461274d565b949350505050565b6000608082019050612dbe6000830187612711565b612dcb6020830186612cb6565b8181036040830152612ddd818561275c565b9050612dec606083018461274d565b95945050505050565b6000604082019050612e0a6000830185612720565b612e176020830184612720565b9392505050565b6000606082019050612e336000830186612720565b612e406020830185612711565b612e4d6040830184612cb6565b949350505050565b6000606082019050612e6a6000830186612720565b612e776020830185612cb6565b612e84604083018461274d565b949350505050565b6000602082019050612ea1600083018461272f565b92915050565b6000602082019050612ebc600083018461273e565b92915050565b6000602082019050612ed7600083018461274d565b92915050565b60006020820190508181036000830152612ef6816127c6565b9050919050565b60006020820190508181036000830152612f1681612806565b9050919050565b60006020820190508181036000830152612f368161286c565b9050919050565b60006020820190508181036000830152612f56816128ac565b9050919050565b60006020820190508181036000830152612f76816128ec565b9050919050565b60006020820190508181036000830152612f9681612952565b9050919050565b60006020820190508181036000830152612fb6816129b8565b9050919050565b60006020820190508181036000830152612fd681612a1e565b9050919050565b60006020820190508181036000830152612ff681612a84565b9050919050565b6000602082019050818103600083015261301681612aea565b9050919050565b6000602082019050818103600083015261303681612b2a565b9050919050565b6000602082019050818103600083015261305681612b6a565b9050919050565b6000602082019050818103600083015261307681612bd0565b9050919050565b6000602082019050818103600083015261309681612c36565b9050919050565b600060208201905081810360008301526130b681612c76565b9050919050565b60006020820190506130d26000830184612cb6565b92915050565b6000604051905081810181811067ffffffffffffffff821117156130ff576130fe61347e565b5b8060405250919050565b600067ffffffffffffffff8211156131245761312361347e565b5b601f19601f8301169050602081019050919050565b600081519050919050565b600082825260208201905092915050565b600081905092915050565b600061316b826132d8565b9150613176836132d8565b9250827fffffffffffffffffffffffffffffffffffffffffffffffffffffffffffffffff038211156131ab576131aa6133c2565b5b828201905092915050565b60006131c1826132d8565b91506131cc836132d8565b9250826131dc576131db6133f1565b5b828204905092915050565b60006131f2826132d8565b91506131fd836132d8565b9250817fffffffffffffffffffffffffffffffffffffffffffffffffffffffffffffffff0483118215151615613236576132356133c2565b5b828202905092915050565b600061324c826132d8565b9150613257836132d8565b92508282101561326a576132696133c2565b5b828203905092915050565b6000613280826132b8565b9050919050565b6000613292826132b8565b9050919050565b60008115159050919050565b60008190506132b3826134be565b919050565b600073ffffffffffffffffffffffffffffffffffffffff82169050919050565b6000819050919050565b60006132ed8261332a565b9050919050565b60006132ff82613306565b9050919050565b6000613311826132b8565b9050919050565b6000613323826132a5565b9050919050565b60006133358261333c565b9050919050565b6000613347826132b8565b9050919050565b82818337600083830152505050565b60005b8381101561337b578082015181840152602081019050613360565b8381111561338a576000848401525b50505050565b600060028204905060018216806133a857607f821691505b602082108114156133bc576133bb61344f565b5b50919050565b7f4e487b7100000000000000000000000000000000000000000000000000000000600052601160045260246000fd5b7f4e487b7100000000000000000000000000000000000000000000000000000000600052601260045260246000fd5b7f4e487b7100000000000000000000000000000000000000000000000000000000600052602160045260246000fd5b7f4e487b7100000000000000000000000000000000000000000000000000000000600052602260045260246000fd5b7f4e487b7100000000000000000000000000000000000000000000000000000000600052604160045260246000fd5b6000601f19601f8301169050919050565b600481106134cf576134ce613420565b5b50565b6134db81613275565b81146134e657600080fd5b50565b6134f281613287565b81146134fd57600080fd5b50565b61350981613299565b811461351457600080fd5b50565b6004811061352457600080fd5b50565b613530816132d8565b811461353b57600080fd5b5056fea26469706673582212203c859f1eb9498b119d869a449e090d2874e04ee70d43ec88600e67d448c3eadc64736f6c63430008000033",
  "immutableReferences": {},
  "source": "//SPDX-License-Identifier: MIT\n\npragma solidity >=0.4.22 <0.9.0;\n\nimport \"../node_modules/@openzeppelin/contracts/token/ERC20/ERC20.sol\";\n\ncontract Blocketplace {\n    enum PaymentStatus {\n        PARTIAL,\n        DONE,\n        REFUNDED,\n        WITHDRAW\n    }\n\n    struct Order {\n        string product_id;\n        string name;\n        uint256 price;\n        uint256 amountPaid;\n        address payable seller;\n        address payable buyer;\n        PaymentStatus paymentStatus;\n    }\n\n    struct Account {\n        bool isSeller;\n        uint256 bankGuarantee;\n        string name;\n        uint256 balance;\n    }\n\n    mapping(address => bool) members;\n    mapping(address => Account) accounts;\n    mapping(string => Order) ordersPlaced;\n\n    address payable deployer;\n    uint256 balance;\n    address blocketPlaceAddr;\n\n    IERC20 public bkt;\n\n    constructor(address bktAddress) payable {\n        deployer = payable(msg.sender);\n        bkt = IERC20(bktAddress);\n        blocketPlaceAddr = bktAddress;\n    }\n\n    modifier onlyOwner() {\n        require(msg.sender == deployer, \"Not the owner\");\n        _;\n    }\n\n    modifier userNotRegistered(address addr) {\n        require(!members[addr], \"User is already registered\");\n        _;\n    }\n\n    modifier isSeller(address sellerAddr) {\n        require(accounts[sellerAddr].isSeller, \"Not a Seller\");\n        _;\n    }\n\n    event BoughtTokens(uint256 amount);\n    event PaymentDone(address payer, uint256 amount, PaymentStatus paymentStatus);\n    event PaymentDone(address payer, uint256 amount, string orderId, PaymentStatus paymentStatus);\n\n    function registerUser(address addr) public userNotRegistered(addr) {\n        members[addr] = true;\n        accounts[addr].balance = 0;\n    }\n\n    function registerUserAsSeller(string memory memberName) public payable {\n        require(members[msg.sender], \"User not registered\");\n        require(\n            msg.value >= 0.001 ether,\n            \"Deposit money should be atleast 0.1 Ether\"\n        );\n\n        address senderAddress = msg.sender;\n        accounts[senderAddress].isSeller = true;\n        accounts[senderAddress].name = memberName;\n        accounts[senderAddress].bankGuarantee = msg.value;\n        bkt.transferFrom(msg.sender, deployer, msg.value);\n    }\n\n    function isUserSeller() public view returns (bool) {\n        return accounts[msg.sender].isSeller;\n    }\n\n    function getSellerBalance() public view isSeller(msg.sender) returns (uint256) {\n        return accounts[msg.sender].balance;\n    }\n\n    function getSomethingBalance() public view returns (uint256) {\n        return bkt.balanceOf(msg.sender);\n    }\n\n    function getOrderStatus(string memory orderId) public view returns (PaymentStatus) {\n        return ordersPlaced[orderId].paymentStatus;\n    } \n\n    function buy() payable public {\n        uint256 amountToBuy = msg.value;\n        uint256 bktBalance = bkt.balanceOf(deployer);\n        require(amountToBuy > 0, \"Send some ether\");\n        require(amountToBuy <= bktBalance, \"Not enough tokens\");\n        bkt.transferFrom(deployer, msg.sender, amountToBuy);\n        emit BoughtTokens(amountToBuy);\n    }\n\n    function withdrawBalance() public payable isSeller(msg.sender) {\n        uint256 bal = accounts[msg.sender].balance;\n        require(bal > 0, \"Balance must be greater than zero\");\n\n        bkt.transferFrom(deployer, msg.sender, bal);\n\n        accounts[msg.sender].balance = 0;\n        emit PaymentDone(msg.sender, bal, PaymentStatus.WITHDRAW);\n    }\n\n    function unregisterUser(address payable userAddress) public payable onlyOwner {\n        require(members[userAddress], \"User not registered\");\n\n        members[userAddress] = false;\n\n        uint256 bankG = accounts[userAddress].bankGuarantee;\n        uint256 bal = accounts[userAddress].balance;\n\n        uint256 amountToBePaid = bankG + bal;\n\n        bkt.transfer(userAddress, amountToBePaid);\n\n        accounts[userAddress].isSeller = false;\n        accounts[userAddress].bankGuarantee = 0;\n        accounts[userAddress].balance = 0;\n\n        emit PaymentDone(userAddress, amountToBePaid, PaymentStatus.WITHDRAW);\n    }\n\n    function getBalance(address addr) public view returns(uint256) {\n        return bkt.balanceOf(addr);\n    }\n\n    function getBalanceSC() public view returns(uint256) {\n        return bkt.balanceOf(address(this));\n    }\n\n    function getAllowance(address addr1, address addr2) public view returns(uint256) {\n        return bkt.allowance(addr1, addr2);\n    }\n\n    function payForOrder(\n        address payable sellerAddr,\n        string memory orderId,\n        string memory productId,\n        string memory productName,\n        uint256 productPrice,\n        uint256 paymentStatus\n    ) public payable isSeller(sellerAddr) {\n        if (paymentStatus == 1) {\n            payAmountForOrder(\n                sellerAddr,\n                orderId,\n                productId,\n                productName,\n                productPrice,\n                PaymentStatus.PARTIAL\n            );\n        } else {\n            payAmountForOrder(\n                sellerAddr,\n                orderId,\n                productId,\n                productName,\n                productPrice,\n                PaymentStatus.DONE\n            );\n        }\n    }\n\n    function payAmountForOrder(\n        address payable sellerAddr,\n        string memory orderId,\n        string memory productId,\n        string memory productName,\n        uint256 productPrice,\n        PaymentStatus paymentStatus\n    ) public payable isSeller(sellerAddr) {\n        uint256 allowance = bkt.allowance(msg.sender, address(this));\n        uint256 amountPaying = msg.value;\n\n        require(members[msg.sender], \"User not registered\");\n        require(productPrice > 0, \"Product Price must be greater than 0\");\n        require(allowance >= amountPaying, \"Allowance must be equal to Amount Paying\");\n        require(allowance >= productPrice, \"Allowance must be equal to Product Price\");\n        if (paymentStatus == PaymentStatus.DONE) {\n            require(amountPaying == productPrice, \"Amount must be equal to Product Price\");\n        }\n\n        uint256 scCut = amountPaying / 10;\n        accounts[sellerAddr].balance += scCut * 9;\n        balance += scCut;\n\n        //bkt.transferFrom(msg.sender, sellerAddr, scCut * 9);\n        bkt.transferFrom(msg.sender, deployer, amountPaying);\n\n        ordersPlaced[orderId].product_id = productId;\n        ordersPlaced[orderId].name = productName;\n        ordersPlaced[orderId].seller = sellerAddr;\n        ordersPlaced[orderId].buyer = payable(msg.sender);\n        if (paymentStatus == PaymentStatus.PARTIAL) {\n            ordersPlaced[orderId].amountPaid += amountPaying;\n        } else {\n            ordersPlaced[orderId].amountPaid = amountPaying;\n        }\n        ordersPlaced[orderId].price = productPrice;\n\n        ordersPlaced[orderId].paymentStatus = paymentStatus;\n        if (ordersPlaced[orderId].amountPaid >= productPrice) {\n            ordersPlaced[orderId].paymentStatus = PaymentStatus.DONE;\n        }\n\n        emit PaymentDone(sellerAddr, ordersPlaced[orderId].amountPaid, orderId, ordersPlaced[orderId].paymentStatus);\n    }\n\n    function refund(string memory orderId, address payable buyerAddress) public payable {\n        require(msg.sender == ordersPlaced[orderId].seller, \"Seller Invalid\");\n        require(\n            ordersPlaced[orderId].amountPaid > 0,\n            \"Amount Paid should be greater than 0\"\n        );\n\n        uint256 amount = ordersPlaced[orderId].amountPaid;\n        amount = (amount / 10) * 9;\n        uint256 amountToSend = amount;\n        if (ordersPlaced[orderId].paymentStatus == PaymentStatus.PARTIAL) {\n            amountToSend = (amount / 100) * 90;\n        }\n        \n        uint256 allowance = bkt.allowance(msg.sender, address(this));\n        require(\n            allowance <= amountToSend,\n            \"Value must be equal to Send to Customer\"\n        );\n\n        bkt.transferFrom(msg.sender, buyerAddress, amountToSend);\n\n        accounts[msg.sender].balance -= amountToSend;\n        ordersPlaced[orderId].paymentStatus = PaymentStatus.REFUNDED;\n\n        emit PaymentDone(buyerAddress, amountToSend, PaymentStatus.REFUNDED);\n    }\n}\n",
  "sourcePath": "/Volumes/Files/Blockchain/blockchain-project/contract/contracts/Blocketplace.sol",
  "compiler": {
    "name": "solc",
    "version": "0.8.0+commit.c7dfd78e.Emscripten.clang"
  },
  "schemaVersion": "3.4.5",
  "updatedAt": "2022-05-08T15:05:06.911Z",
  "networkType": "ethereum",
  "devdoc": {
    "kind": "dev",
    "methods": {},
    "version": 1
  },
  "userdoc": {
    "kind": "user",
    "methods": {},
    "version": 1
  }
}