{
  "contractName": "BlocketPlaceToken",
  "abi": [
    {
      "inputs": [],
      "stateMutability": "nonpayable",
      "type": "constructor"
    },
    {
      "anonymous": false,
      "inputs": [
        {
          "indexed": true,
          "internalType": "address",
          "name": "owner",
          "type": "address"
        },
        {
          "indexed": true,
          "internalType": "address",
          "name": "spender",
          "type": "address"
        },
        {
          "indexed": false,
          "internalType": "uint256",
          "name": "value",
          "type": "uint256"
        }
      ],
      "name": "Approval",
      "type": "event"
    },
    {
      "anonymous": false,
      "inputs": [
        {
          "indexed": true,
          "internalType": "address",
          "name": "from",
          "type": "address"
        },
        {
          "indexed": true,
          "internalType": "address",
          "name": "to",
          "type": "address"
        },
        {
          "indexed": false,
          "internalType": "uint256",
          "name": "value",
          "type": "uint256"
        }
      ],
      "name": "Transfer",
      "type": "event"
    },
    {
      "inputs": [
        {
          "internalType": "address",
          "name": "owner",
          "type": "address"
        },
        {
          "internalType": "address",
          "name": "spender",
          "type": "address"
        }
      ],
      "name": "allowance",
      "outputs": [
        {
          "internalType": "uint256",
          "name": "",
          "type": "uint256"
        }
      ],
      "stateMutability": "view",
      "type": "function",
      "constant": true
    },
    {
      "inputs": [
        {
          "internalType": "address",
          "name": "spender",
          "type": "address"
        },
        {
          "internalType": "uint256",
          "name": "amount",
          "type": "uint256"
        }
      ],
      "name": "approve",
      "outputs": [
        {
          "internalType": "bool",
          "name": "",
          "type": "bool"
        }
      ],
      "stateMutability": "nonpayable",
      "type": "function"
    },
    {
      "inputs": [
        {
          "internalType": "address",
          "name": "account",
          "type": "address"
        }
      ],
      "name": "balanceOf",
      "outputs": [
        {
          "internalType": "uint256",
          "name": "",
          "type": "uint256"
        }
      ],
      "stateMutability": "view",
      "type": "function",
      "constant": true
    },
    {
      "inputs": [],
      "name": "decimals",
      "outputs": [
        {
          "internalType": "uint8",
          "name": "",
          "type": "uint8"
        }
      ],
      "stateMutability": "view",
      "type": "function",
      "constant": true
    },
    {
      "inputs": [
        {
          "internalType": "address",
          "name": "spender",
          "type": "address"
        },
        {
          "internalType": "uint256",
          "name": "subtractedValue",
          "type": "uint256"
        }
      ],
      "name": "decreaseAllowance",
      "outputs": [
        {
          "internalType": "bool",
          "name": "",
          "type": "bool"
        }
      ],
      "stateMutability": "nonpayable",
      "type": "function"
    },
    {
      "inputs": [
        {
          "internalType": "address",
          "name": "spender",
          "type": "address"
        },
        {
          "internalType": "uint256",
          "name": "addedValue",
          "type": "uint256"
        }
      ],
      "name": "increaseAllowance",
      "outputs": [
        {
          "internalType": "bool",
          "name": "",
          "type": "bool"
        }
      ],
      "stateMutability": "nonpayable",
      "type": "function"
    },
    {
      "inputs": [],
      "name": "name",
      "outputs": [
        {
          "internalType": "string",
          "name": "",
          "type": "string"
        }
      ],
      "stateMutability": "view",
      "type": "function",
      "constant": true
    },
    {
      "inputs": [],
      "name": "symbol",
      "outputs": [
        {
          "internalType": "string",
          "name": "",
          "type": "string"
        }
      ],
      "stateMutability": "view",
      "type": "function",
      "constant": true
    },
    {
      "inputs": [],
      "name": "totalSupply",
      "outputs": [
        {
          "internalType": "uint256",
          "name": "",
          "type": "uint256"
        }
      ],
      "stateMutability": "view",
      "type": "function",
      "constant": true
    },
    {
      "inputs": [
        {
          "internalType": "address",
          "name": "to",
          "type": "address"
        },
        {
          "internalType": "uint256",
          "name": "amount",
          "type": "uint256"
        }
      ],
      "name": "transfer",
      "outputs": [
        {
          "internalType": "bool",
          "name": "",
          "type": "bool"
        }
      ],
      "stateMutability": "nonpayable",
      "type": "function"
    },
    {
      "inputs": [
        {
          "internalType": "address",
          "name": "from",
          "type": "address"
        },
        {
          "internalType": "address",
          "name": "to",
          "type": "address"
        },
        {
          "internalType": "uint256",
          "name": "amount",
          "type": "uint256"
        }
      ],
      "name": "transferFrom",
      "outputs": [
        {
          "internalType": "bool",
          "name": "",
          "type": "bool"
        }
      ],
      "stateMutability": "nonpayable",
      "type": "function"
    },
    {
      "inputs": [
        {
          "internalType": "address",
          "name": "to",
          "type": "address"
        },
        {
          "internalType": "uint256",
          "name": "amount",
          "type": "uint256"
        }
      ],
      "name": "mint",
      "outputs": [],
      "stateMutability": "nonpayable",
      "type": "function"
    },
    {
      "inputs": [],
      "name": "balanceOfSC",
      "outputs": [
        {
          "internalType": "uint256",
          "name": "",
          "type": "uint256"
        }
      ],
      "stateMutability": "view",
      "type": "function",
      "constant": true
    },
    {
      "inputs": [],
      "name": "balanceOfAddr",
      "outputs": [
        {
          "internalType": "uint256",
          "name": "",
          "type": "uint256"
        }
      ],
      "stateMutability": "view",
      "type": "function",
      "constant": true
    }
  ],
  "bytecode": "0x60806040523480156200001157600080fd5b506040518060400160405280600c81526020017f426c6f636b6574706c61636500000000000000000000000000000000000000008152506040518060400160405280600381526020017f424b540000000000000000000000000000000000000000000000000000000000815250816003908051906020019062000096929190620004c3565b508060049080519060200190620000af929190620004c3565b50505033600560006101000a81548173ffffffffffffffffffffffffffffffffffffffff021916908373ffffffffffffffffffffffffffffffffffffffff1602179055506200010f3369021e19e0c9bab24000006200013260201b60201c565b6200012b3069021e19e0c9bab2400000620002ab60201b60201c565b5062000825565b600073ffffffffffffffffffffffffffffffffffffffff168273ffffffffffffffffffffffffffffffffffffffff161415620001a5576040517f08c379a00000000000000000000000000000000000000000000000000000000081526004016200019c90620006da565b60405180910390fd5b620001b960008383620002de60201b60201c565b8060026000828254620001cd91906200072a565b92505081905550806000808473ffffffffffffffffffffffffffffffffffffffff1673ffffffffffffffffffffffffffffffffffffffff16815260200190815260200160002060008282546200022491906200072a565b925050819055508173ffffffffffffffffffffffffffffffffffffffff16600073ffffffffffffffffffffffffffffffffffffffff167fddf252ad1be2c89b69c2b068fc378daa952ba7f163c4a11628f55a4df523b3ef836040516200028b9190620006fc565b60405180910390a3620002a760008383620002e360201b60201c565b5050565b600080620002be620002e860201b60201c565b9050620002d3818585620002f060201b60201c565b600191505092915050565b505050565b505050565b600033905090565b600073ffffffffffffffffffffffffffffffffffffffff168373ffffffffffffffffffffffffffffffffffffffff16141562000363576040517f08c379a00000000000000000000000000000000000000000000000000000000081526004016200035a90620006b8565b60405180910390fd5b600073ffffffffffffffffffffffffffffffffffffffff168273ffffffffffffffffffffffffffffffffffffffff161415620003d6576040517f08c379a0000000000000000000000000000000000000000000000000000000008152600401620003cd9062000696565b60405180910390fd5b80600160008573ffffffffffffffffffffffffffffffffffffffff1673ffffffffffffffffffffffffffffffffffffffff16815260200190815260200160002060008473ffffffffffffffffffffffffffffffffffffffff1673ffffffffffffffffffffffffffffffffffffffff168152602001908152602001600020819055508173ffffffffffffffffffffffffffffffffffffffff168373ffffffffffffffffffffffffffffffffffffffff167f8c5be1e5ebec7d5bd14f71427d1e84f3dd0314c0f7b2291e5b200ac8c7c3b92583604051620004b69190620006fc565b60405180910390a3505050565b828054620004d19062000791565b90600052602060002090601f016020900481019282620004f5576000855562000541565b82601f106200051057805160ff191683800117855562000541565b8280016001018555821562000541579182015b828111156200054057825182559160200191906001019062000523565b5b50905062000550919062000554565b5090565b5b808211156200056f57600081600090555060010162000555565b5090565b60006200058260228362000719565b91507f45524332303a20617070726f766520746f20746865207a65726f20616464726560008301527f73730000000000000000000000000000000000000000000000000000000000006020830152604082019050919050565b6000620005ea60248362000719565b91507f45524332303a20617070726f76652066726f6d20746865207a65726f2061646460008301527f72657373000000000000000000000000000000000000000000000000000000006020830152604082019050919050565b600062000652601f8362000719565b91507f45524332303a206d696e7420746f20746865207a65726f2061646472657373006000830152602082019050919050565b620006908162000787565b82525050565b60006020820190508181036000830152620006b18162000573565b9050919050565b60006020820190508181036000830152620006d381620005db565b9050919050565b60006020820190508181036000830152620006f58162000643565b9050919050565b600060208201905062000713600083018462000685565b92915050565b600082825260208201905092915050565b6000620007378262000787565b9150620007448362000787565b9250827fffffffffffffffffffffffffffffffffffffffffffffffffffffffffffffffff038211156200077c576200077b620007c7565b5b828201905092915050565b6000819050919050565b60006002820490506001821680620007aa57607f821691505b60208210811415620007c157620007c0620007f6565b5b50919050565b7f4e487b7100000000000000000000000000000000000000000000000000000000600052601160045260246000fd5b7f4e487b7100000000000000000000000000000000000000000000000000000000600052602260045260246000fd5b61169680620008356000396000f3fe608060405234801561001057600080fd5b50600436106100ea5760003560e01c806340c10f191161008c57806395d89b411161006657806395d89b4114610261578063a457c2d71461027f578063a9059cbb146102af578063dd62ed3e146102df576100ea565b806340c10f19146101f757806370a08231146102135780637793e56414610243576100ea565b806323b872dd116100c857806323b872dd1461015b57806325605c6a1461018b578063313ce567146101a957806339509351146101c7576100ea565b806306fdde03146100ef578063095ea7b31461010d57806318160ddd1461013d575b600080fd5b6100f761030f565b604051610104919061131f565b60405180910390f35b61012760048036038101906101229190610f3e565b6103a1565b6040516101349190611304565b60405180910390f35b6101456103c4565b6040516101529190611461565b60405180910390f35b61017560048036038101906101709190610eef565b6103ce565b6040516101829190611304565b60405180910390f35b6101936103fd565b6040516101a09190611461565b60405180910390f35b6101b161049d565b6040516101be919061147c565b60405180910390f35b6101e160048036038101906101dc9190610f3e565b6104a6565b6040516101ee9190611304565b60405180910390f35b610211600480360381019061020c9190610f3e565b6104dd565b005b61022d60048036038101906102289190610e8a565b61057b565b60405161023a9190611461565b60405180910390f35b61024b6105c3565b6040516102589190611461565b60405180910390f35b610269610663565b604051610276919061131f565b60405180910390f35b61029960048036038101906102949190610f3e565b6106f5565b6040516102a69190611304565b60405180910390f35b6102c960048036038101906102c49190610f3e565b61076c565b6040516102d69190611304565b60405180910390f35b6102f960048036038101906102f49190610eb3565b61078f565b6040516103069190611461565b60405180910390f35b60606003805461031e90611591565b80601f016020809104026020016040519081016040528092919081815260200182805461034a90611591565b80156103975780601f1061036c57610100808354040283529160200191610397565b820191906000526020600020905b81548152906001019060200180831161037a57829003601f168201915b5050505050905090565b6000806103ac610816565b90506103b981858561081e565b600191505092915050565b6000600254905090565b6000806103d9610816565b90506103e68582856109e9565b6103f1858585610a75565b60019150509392505050565b6000600560009054906101000a900473ffffffffffffffffffffffffffffffffffffffff1673ffffffffffffffffffffffffffffffffffffffff163373ffffffffffffffffffffffffffffffffffffffff161461048f576040517f08c379a0000000000000000000000000000000000000000000000000000000008152600401610486906113c1565b60405180910390fd5b6104983061057b565b905090565b60006012905090565b6000806104b1610816565b90506104d28185856104c3858961078f565b6104cd91906114b3565b61081e565b600191505092915050565b600560009054906101000a900473ffffffffffffffffffffffffffffffffffffffff1673ffffffffffffffffffffffffffffffffffffffff163373ffffffffffffffffffffffffffffffffffffffff161461056d576040517f08c379a0000000000000000000000000000000000000000000000000000000008152600401610564906113c1565b60405180910390fd5b6105778282610cf6565b5050565b60008060008373ffffffffffffffffffffffffffffffffffffffff1673ffffffffffffffffffffffffffffffffffffffff168152602001908152602001600020549050919050565b6000600560009054906101000a900473ffffffffffffffffffffffffffffffffffffffff1673ffffffffffffffffffffffffffffffffffffffff163373ffffffffffffffffffffffffffffffffffffffff1614610655576040517f08c379a000000000000000000000000000000000000000000000000000000000815260040161064c906113c1565b60405180910390fd5b61065e3361057b565b905090565b60606004805461067290611591565b80601f016020809104026020016040519081016040528092919081815260200182805461069e90611591565b80156106eb5780601f106106c0576101008083540402835291602001916106eb565b820191906000526020600020905b8154815290600101906020018083116106ce57829003601f168201915b5050505050905090565b600080610700610816565b9050600061070e828661078f565b905083811015610753576040517f08c379a000000000000000000000000000000000000000000000000000000000815260040161074a90611421565b60405180910390fd5b610760828686840361081e565b60019250505092915050565b600080610777610816565b9050610784818585610a75565b600191505092915050565b6000600160008473ffffffffffffffffffffffffffffffffffffffff1673ffffffffffffffffffffffffffffffffffffffff16815260200190815260200160002060008373ffffffffffffffffffffffffffffffffffffffff1673ffffffffffffffffffffffffffffffffffffffff16815260200190815260200160002054905092915050565b600033905090565b600073ffffffffffffffffffffffffffffffffffffffff168373ffffffffffffffffffffffffffffffffffffffff16141561088e576040517f08c379a000000000000000000000000000000000000000000000000000000000815260040161088590611401565b60405180910390fd5b600073ffffffffffffffffffffffffffffffffffffffff168273ffffffffffffffffffffffffffffffffffffffff1614156108fe576040517f08c379a00000000000000000000000000000000000000000000000000000000081526004016108f590611361565b60405180910390fd5b80600160008573ffffffffffffffffffffffffffffffffffffffff1673ffffffffffffffffffffffffffffffffffffffff16815260200190815260200160002060008473ffffffffffffffffffffffffffffffffffffffff1673ffffffffffffffffffffffffffffffffffffffff168152602001908152602001600020819055508173ffffffffffffffffffffffffffffffffffffffff168373ffffffffffffffffffffffffffffffffffffffff167f8c5be1e5ebec7d5bd14f71427d1e84f3dd0314c0f7b2291e5b200ac8c7c3b925836040516109dc9190611461565b60405180910390a3505050565b60006109f5848461078f565b90507fffffffffffffffffffffffffffffffffffffffffffffffffffffffffffffffff8114610a6f5781811015610a61576040517f08c379a0000000000000000000000000000000000000000000000000000000008152600401610a5890611381565b60405180910390fd5b610a6e848484840361081e565b5b50505050565b600073ffffffffffffffffffffffffffffffffffffffff168373ffffffffffffffffffffffffffffffffffffffff161415610ae5576040517f08c379a0000000000000000000000000000000000000000000000000000000008152600401610adc906113e1565b60405180910390fd5b600073ffffffffffffffffffffffffffffffffffffffff168273ffffffffffffffffffffffffffffffffffffffff161415610b55576040517f08c379a0000000000000000000000000000000000000000000000000000000008152600401610b4c90611341565b60405180910390fd5b610b60838383610e56565b60008060008573ffffffffffffffffffffffffffffffffffffffff1673ffffffffffffffffffffffffffffffffffffffff16815260200190815260200160002054905081811015610be6576040517f08c379a0000000000000000000000000000000000000000000000000000000008152600401610bdd906113a1565b60405180910390fd5b8181036000808673ffffffffffffffffffffffffffffffffffffffff1673ffffffffffffffffffffffffffffffffffffffff16815260200190815260200160002081905550816000808573ffffffffffffffffffffffffffffffffffffffff1673ffffffffffffffffffffffffffffffffffffffff1681526020019081526020016000206000828254610c7991906114b3565b925050819055508273ffffffffffffffffffffffffffffffffffffffff168473ffffffffffffffffffffffffffffffffffffffff167fddf252ad1be2c89b69c2b068fc378daa952ba7f163c4a11628f55a4df523b3ef84604051610cdd9190611461565b60405180910390a3610cf0848484610e5b565b50505050565b600073ffffffffffffffffffffffffffffffffffffffff168273ffffffffffffffffffffffffffffffffffffffff161415610d66576040517f08c379a0000000000000000000000000000000000000000000000000000000008152600401610d5d90611441565b60405180910390fd5b610d7260008383610e56565b8060026000828254610d8491906114b3565b92505081905550806000808473ffffffffffffffffffffffffffffffffffffffff1673ffffffffffffffffffffffffffffffffffffffff1681526020019081526020016000206000828254610dd991906114b3565b925050819055508173ffffffffffffffffffffffffffffffffffffffff16600073ffffffffffffffffffffffffffffffffffffffff167fddf252ad1be2c89b69c2b068fc378daa952ba7f163c4a11628f55a4df523b3ef83604051610e3e9190611461565b60405180910390a3610e5260008383610e5b565b5050565b505050565b505050565b600081359050610e6f81611632565b92915050565b600081359050610e8481611649565b92915050565b600060208284031215610e9c57600080fd5b6000610eaa84828501610e60565b91505092915050565b60008060408385031215610ec657600080fd5b6000610ed485828601610e60565b9250506020610ee585828601610e60565b9150509250929050565b600080600060608486031215610f0457600080fd5b6000610f1286828701610e60565b9350506020610f2386828701610e60565b9250506040610f3486828701610e75565b9150509250925092565b60008060408385031215610f5157600080fd5b6000610f5f85828601610e60565b9250506020610f7085828601610e75565b9150509250929050565b610f838161151b565b82525050565b6000610f9482611497565b610f9e81856114a2565b9350610fae81856020860161155e565b610fb781611621565b840191505092915050565b6000610fcf6023836114a2565b91507f45524332303a207472616e7366657220746f20746865207a65726f206164647260008301527f65737300000000000000000000000000000000000000000000000000000000006020830152604082019050919050565b60006110356022836114a2565b91507f45524332303a20617070726f766520746f20746865207a65726f20616464726560008301527f73730000000000000000000000000000000000000000000000000000000000006020830152604082019050919050565b600061109b601d836114a2565b91507f45524332303a20696e73756666696369656e7420616c6c6f77616e63650000006000830152602082019050919050565b60006110db6026836114a2565b91507f45524332303a207472616e7366657220616d6f756e742065786365656473206260008301527f616c616e636500000000000000000000000000000000000000000000000000006020830152604082019050919050565b6000611141600d836114a2565b91507f4e6f7420746865206f776e6572000000000000000000000000000000000000006000830152602082019050919050565b60006111816025836114a2565b91507f45524332303a207472616e736665722066726f6d20746865207a65726f20616460008301527f64726573730000000000000000000000000000000000000000000000000000006020830152604082019050919050565b60006111e76024836114a2565b91507f45524332303a20617070726f76652066726f6d20746865207a65726f2061646460008301527f72657373000000000000000000000000000000000000000000000000000000006020830152604082019050919050565b600061124d6025836114a2565b91507f45524332303a2064656372656173656420616c6c6f77616e63652062656c6f7760008301527f207a65726f0000000000000000000000000000000000000000000000000000006020830152604082019050919050565b60006112b3601f836114a2565b91507f45524332303a206d696e7420746f20746865207a65726f2061646472657373006000830152602082019050919050565b6112ef81611547565b82525050565b6112fe81611551565b82525050565b60006020820190506113196000830184610f7a565b92915050565b600060208201905081810360008301526113398184610f89565b905092915050565b6000602082019050818103600083015261135a81610fc2565b9050919050565b6000602082019050818103600083015261137a81611028565b9050919050565b6000602082019050818103600083015261139a8161108e565b9050919050565b600060208201905081810360008301526113ba816110ce565b9050919050565b600060208201905081810360008301526113da81611134565b9050919050565b600060208201905081810360008301526113fa81611174565b9050919050565b6000602082019050818103600083015261141a816111da565b9050919050565b6000602082019050818103600083015261143a81611240565b9050919050565b6000602082019050818103600083015261145a816112a6565b9050919050565b600060208201905061147660008301846112e6565b92915050565b600060208201905061149160008301846112f5565b92915050565b600081519050919050565b600082825260208201905092915050565b60006114be82611547565b91506114c983611547565b9250827fffffffffffffffffffffffffffffffffffffffffffffffffffffffffffffffff038211156114fe576114fd6115c3565b5b828201905092915050565b600061151482611527565b9050919050565b60008115159050919050565b600073ffffffffffffffffffffffffffffffffffffffff82169050919050565b6000819050919050565b600060ff82169050919050565b60005b8381101561157c578082015181840152602081019050611561565b8381111561158b576000848401525b50505050565b600060028204905060018216806115a957607f821691505b602082108114156115bd576115bc6115f2565b5b50919050565b7f4e487b7100000000000000000000000000000000000000000000000000000000600052601160045260246000fd5b7f4e487b7100000000000000000000000000000000000000000000000000000000600052602260045260246000fd5b6000601f19601f8301169050919050565b61163b81611509565b811461164657600080fd5b50565b61165281611547565b811461165d57600080fd5b5056fea26469706673582212205a7b5f21d26fe942bc943049f2455b7c2e4c7b11fad2c9f77445a05bd6d1748364736f6c63430008000033",
  "immutableReferences": {},
  "source": "//SPDX-License-Identifier: MIT\n\npragma solidity >=0.6.12 < 0.9.0;\nimport \"../node_modules/@openzeppelin/contracts/token/ERC20/ERC20.sol\";\n\ncontract BlocketPlaceToken is ERC20 {\n    address owner;\n    constructor () ERC20(\"Blocketplace\", \"BKT\") {\n        owner = msg.sender;\n        _mint(msg.sender, 10000 * 10 ** 18);\n        approve(address(this), 10000 * 10 ** 18);\n    }\n\n    modifier onlyOwnerMint() {\n        require(msg.sender == owner, \"Not the owner\");\n        _;\n    }\n\n    // 100000000000000000\n    // 101000000000000000000\n    // 100000000000000000000\n    // 1000000000000000000000\n    //0x5B38Da6a701c568545dCfcB03FcB875f56beddC4\n    //0xAb8483F64d9C6d1EcF9b849Ae677dD3315835cb2\n    //0x4B20993Bc481177ec7E8f571ceCaE8A9e22C02db\n    //10000000000000000000000\n    //2000000000000000000000\n    //9000000000000000000000\n    //0x7b96aF9Bd211cBf6BA5b0dd53aa61Dc5806b6AcE\n    //0x2067b56DaBd9a666E7216b8b5d00BfE511fb6464\n    // Ganache\n    // 0xCcA802BC2a6B7718a1349aF57303a024b98D5E1E\n    // 0x497D63614b921339C503E82d1B155a0E8d897Dda\n    // 0xA67ebfd8118ca30143AA4106b6Ecfde3D9f8E01E\n    // 0xDcA23697b89c762b66Ce8645B50a4B86B38508d2\n    // 0xC7260e2150569F6Ac522BE5708C7446F9Fd3a748\n\n    // 100000000000000000000\n\n    function mint(address to, uint amount) onlyOwnerMint public {\n        _mint(to, amount);\n    }\n\n    function balanceOfSC() onlyOwnerMint public view returns(uint256) {\n        return balanceOf(address(this));\n    } \n\n    function balanceOfAddr() onlyOwnerMint public view returns(uint256) {\n        return balanceOf(msg.sender);\n    } \n}",
  "sourcePath": "/Volumes/Files/Blockchain/blockchain-project/contract/contracts/BlocketPlaceToken.sol",
  "compiler": {
    "name": "solc",
    "version": "0.8.0+commit.c7dfd78e.Emscripten.clang"
  },
  "schemaVersion": "3.4.5",
  "updatedAt": "2022-05-08T20:28:20.747Z",
  "networkType": "ethereum",
  "devdoc": {
    "kind": "dev",
    "methods": {
      "allowance(address,address)": {
        "details": "See {IERC20-allowance}."
      },
      "approve(address,uint256)": {
        "details": "See {IERC20-approve}. NOTE: If `amount` is the maximum `uint256`, the allowance is not updated on `transferFrom`. This is semantically equivalent to an infinite approval. Requirements: - `spender` cannot be the zero address."
      },
      "balanceOf(address)": {
        "details": "See {IERC20-balanceOf}."
      },
      "decimals()": {
        "details": "Returns the number of decimals used to get its user representation. For example, if `decimals` equals `2`, a balance of `505` tokens should be displayed to a user as `5.05` (`505 / 10 ** 2`). Tokens usually opt for a value of 18, imitating the relationship between Ether and Wei. This is the value {ERC20} uses, unless this function is overridden; NOTE: This information is only used for _display_ purposes: it in no way affects any of the arithmetic of the contract, including {IERC20-balanceOf} and {IERC20-transfer}."
      },
      "decreaseAllowance(address,uint256)": {
        "details": "Atomically decreases the allowance granted to `spender` by the caller. This is an alternative to {approve} that can be used as a mitigation for problems described in {IERC20-approve}. Emits an {Approval} event indicating the updated allowance. Requirements: - `spender` cannot be the zero address. - `spender` must have allowance for the caller of at least `subtractedValue`."
      },
      "increaseAllowance(address,uint256)": {
        "details": "Atomically increases the allowance granted to `spender` by the caller. This is an alternative to {approve} that can be used as a mitigation for problems described in {IERC20-approve}. Emits an {Approval} event indicating the updated allowance. Requirements: - `spender` cannot be the zero address."
      },
      "name()": {
        "details": "Returns the name of the token."
      },
      "symbol()": {
        "details": "Returns the symbol of the token, usually a shorter version of the name."
      },
      "totalSupply()": {
        "details": "See {IERC20-totalSupply}."
      },
      "transfer(address,uint256)": {
        "details": "See {IERC20-transfer}. Requirements: - `to` cannot be the zero address. - the caller must have a balance of at least `amount`."
      },
      "transferFrom(address,address,uint256)": {
        "details": "See {IERC20-transferFrom}. Emits an {Approval} event indicating the updated allowance. This is not required by the EIP. See the note at the beginning of {ERC20}. NOTE: Does not update the allowance if the current allowance is the maximum `uint256`. Requirements: - `from` and `to` cannot be the zero address. - `from` must have a balance of at least `amount`. - the caller must have allowance for ``from``'s tokens of at least `amount`."
      }
    },
    "version": 1
  },
  "userdoc": {
    "kind": "user",
    "methods": {},
    "version": 1
  }
}