{
  "contractName": "Blocketplace",
  "abi": [
    {
      "inputs": [
        {
          "internalType": "address",
          "name": "bktAddress",
          "type": "address"
        }
      ],
      "stateMutability": "payable",
      "type": "constructor",
      "payable": true
    },
    {
      "anonymous": false,
      "inputs": [
        {
          "indexed": false,
          "internalType": "uint256",
          "name": "amount",
          "type": "uint256"
        }
      ],
      "name": "BoughtTokens",
      "type": "event"
    },
    {
      "anonymous": false,
      "inputs": [
        {
          "indexed": false,
          "internalType": "address",
          "name": "payer",
          "type": "address"
        },
        {
          "indexed": false,
          "internalType": "uint256",
          "name": "amount",
          "type": "uint256"
        },
        {
          "indexed": false,
          "internalType": "enum Blocketplace.PaymentStatus",
          "name": "paymentStatus",
          "type": "uint8"
        }
      ],
      "name": "PaymentDone",
      "type": "event"
    },
    {
      "anonymous": false,
      "inputs": [
        {
          "indexed": false,
          "internalType": "address",
          "name": "payer",
          "type": "address"
        },
        {
          "indexed": false,
          "internalType": "uint256",
          "name": "amount",
          "type": "uint256"
        },
        {
          "indexed": false,
          "internalType": "string",
          "name": "orderId",
          "type": "string"
        },
        {
          "indexed": false,
          "internalType": "enum Blocketplace.PaymentStatus",
          "name": "paymentStatus",
          "type": "uint8"
        }
      ],
      "name": "PaymentDone",
      "type": "event"
    },
    {
      "inputs": [],
      "name": "bkt",
      "outputs": [
        {
          "internalType": "contract IERC20",
          "name": "",
          "type": "address"
        }
      ],
      "stateMutability": "view",
      "type": "function",
      "constant": true
    },
    {
      "inputs": [
        {
          "internalType": "address",
          "name": "addr",
          "type": "address"
        }
      ],
      "name": "registerUser",
      "outputs": [],
      "stateMutability": "nonpayable",
      "type": "function"
    },
    {
      "inputs": [
        {
          "internalType": "string",
          "name": "memberName",
          "type": "string"
        },
        {
          "internalType": "uint256",
          "name": "depositAmount",
          "type": "uint256"
        }
      ],
      "name": "registerUserAsSeller",
      "outputs": [],
      "stateMutability": "nonpayable",
      "type": "function"
    },
    {
      "inputs": [],
      "name": "isUserSeller",
      "outputs": [
        {
          "internalType": "bool",
          "name": "",
          "type": "bool"
        }
      ],
      "stateMutability": "view",
      "type": "function",
      "constant": true
    },
    {
      "inputs": [],
      "name": "getSellerBalance",
      "outputs": [
        {
          "internalType": "uint256",
          "name": "",
          "type": "uint256"
        }
      ],
      "stateMutability": "view",
      "type": "function",
      "constant": true
    },
    {
      "inputs": [],
      "name": "getSomethingBalance",
      "outputs": [
        {
          "internalType": "uint256",
          "name": "",
          "type": "uint256"
        }
      ],
      "stateMutability": "view",
      "type": "function",
      "constant": true
    },
    {
      "inputs": [
        {
          "internalType": "string",
          "name": "orderId",
          "type": "string"
        }
      ],
      "name": "getOrderStatus",
      "outputs": [
        {
          "internalType": "enum Blocketplace.PaymentStatus",
          "name": "",
          "type": "uint8"
        }
      ],
      "stateMutability": "view",
      "type": "function",
      "constant": true
    },
    {
      "inputs": [],
      "name": "buy",
      "outputs": [],
      "stateMutability": "payable",
      "type": "function",
      "payable": true
    },
    {
      "inputs": [],
      "name": "withdrawBalance",
      "outputs": [],
      "stateMutability": "nonpayable",
      "type": "function"
    },
    {
      "inputs": [
        {
          "internalType": "address payable",
          "name": "userAddress",
          "type": "address"
        }
      ],
      "name": "unregisterUser",
      "outputs": [],
      "stateMutability": "nonpayable",
      "type": "function"
    },
    {
      "inputs": [
        {
          "internalType": "address",
          "name": "addr",
          "type": "address"
        }
      ],
      "name": "getBalance",
      "outputs": [
        {
          "internalType": "uint256",
          "name": "",
          "type": "uint256"
        }
      ],
      "stateMutability": "view",
      "type": "function",
      "constant": true
    },
    {
      "inputs": [],
      "name": "getBalanceSC",
      "outputs": [
        {
          "internalType": "uint256",
          "name": "",
          "type": "uint256"
        }
      ],
      "stateMutability": "view",
      "type": "function",
      "constant": true
    },
    {
      "inputs": [
        {
          "internalType": "address",
          "name": "addr1",
          "type": "address"
        },
        {
          "internalType": "address",
          "name": "addr2",
          "type": "address"
        }
      ],
      "name": "getAllowance",
      "outputs": [
        {
          "internalType": "uint256",
          "name": "",
          "type": "uint256"
        }
      ],
      "stateMutability": "view",
      "type": "function",
      "constant": true
    },
    {
      "inputs": [
        {
          "internalType": "address payable",
          "name": "sellerAddr",
          "type": "address"
        },
        {
          "internalType": "string",
          "name": "orderId",
          "type": "string"
        },
        {
          "internalType": "string",
          "name": "productId",
          "type": "string"
        },
        {
          "internalType": "string",
          "name": "productName",
          "type": "string"
        },
        {
          "internalType": "uint256",
          "name": "productPrice",
          "type": "uint256"
        },
        {
          "internalType": "uint256",
          "name": "paymentStatus",
          "type": "uint256"
        },
        {
          "internalType": "uint256",
          "name": "amountPaying",
          "type": "uint256"
        }
      ],
      "name": "payForOrder",
      "outputs": [],
      "stateMutability": "nonpayable",
      "type": "function"
    },
    {
      "inputs": [
        {
          "internalType": "address payable",
          "name": "sellerAddr",
          "type": "address"
        },
        {
          "internalType": "string",
          "name": "orderId",
          "type": "string"
        },
        {
          "internalType": "string",
          "name": "productId",
          "type": "string"
        },
        {
          "internalType": "string",
          "name": "productName",
          "type": "string"
        },
        {
          "internalType": "uint256",
          "name": "productPrice",
          "type": "uint256"
        },
        {
          "internalType": "enum Blocketplace.PaymentStatus",
          "name": "paymentStatus",
          "type": "uint8"
        },
        {
          "internalType": "uint256",
          "name": "amountPaying",
          "type": "uint256"
        }
      ],
      "name": "payAmountForOrder",
      "outputs": [],
      "stateMutability": "nonpayable",
      "type": "function"
    },
    {
      "inputs": [
        {
          "internalType": "string",
          "name": "orderId",
          "type": "string"
        },
        {
          "internalType": "address payable",
          "name": "buyerAddress",
          "type": "address"
        }
      ],
      "name": "refund",
      "outputs": [],
      "stateMutability": "nonpayable",
      "type": "function"
    }
  ],
  "bytecode": "0x6080604052604051620038053803806200380583398181016040528101906200002991906200010a565b33600360006101000a81548173ffffffffffffffffffffffffffffffffffffffff021916908373ffffffffffffffffffffffffffffffffffffffff16021790555080600660006101000a81548173ffffffffffffffffffffffffffffffffffffffff021916908373ffffffffffffffffffffffffffffffffffffffff16021790555080600560006101000a81548173ffffffffffffffffffffffffffffffffffffffff021916908373ffffffffffffffffffffffffffffffffffffffff1602179055505062000184565b60008151905062000104816200016a565b92915050565b6000602082840312156200011d57600080fd5b60006200012d84828501620000f3565b91505092915050565b600062000143826200014a565b9050919050565b600073ffffffffffffffffffffffffffffffffffffffff82169050919050565b620001758162000136565b81146200018157600080fd5b50565b61367180620001946000396000f3fe6080604052600436106100f35760003560e01c80636e073b961161008a578063a6f2ae3a11610059578063a6f2ae3a146102ee578063aedfb5d3146102f8578063b32c935614610335578063f8b2cb4f14610360576100f3565b80636e073b961461024857806371cc805a146102715780637a9dae961461029a5780638b50481e146102c5576100f3565b80632e452342116100c65780632e452342146101b25780634587fd37146101dd57806358b0711e146102085780635fd8c71014610231576100f3565b80630af4187d146100f85780631ff6ff0a146101355780632199d5cd1461016057806321f2ca3b14610189575b600080fd5b34801561010457600080fd5b5061011f600480360381019061011a9190612689565b61039d565b60405161012c91906131ba565b60405180910390f35b34801561014157600080fd5b5061014a610454565b6040516101579190612f89565b60405180910390f35b34801561016c57600080fd5b506101876004803603810190610182919061246b565b6104ab565b005b34801561019557600080fd5b506101b060048036038101906101ab9190612494565b6105db565b005b3480156101be57600080fd5b506101c76109ec565b6040516101d491906131ba565b60405180910390f35b3480156101e957600080fd5b506101f2610a9e565b6040516101ff9190612fa4565b60405180910390f35b34801561021457600080fd5b5061022f600480360381019061022a9190612783565b610ac4565b005b34801561023d57600080fd5b50610246610d6f565b005b34801561025457600080fd5b5061026f600480360381019061026a91906125a3565b610fe5565b005b34801561027d57600080fd5b506102986004803603810190610293919061272f565b6110ae565b005b3480156102a657600080fd5b506102af61157b565b6040516102bc91906131ba565b60405180910390f35b3480156102d157600080fd5b506102ec60048036038101906102e791906124bd565b611656565b005b6102f6611ed9565b005b34801561030457600080fd5b5061031f600480360381019061031a91906126ee565b612144565b60405161032c9190612fbf565b60405180910390f35b34801561034157600080fd5b5061034a61217c565b60405161035791906131ba565b60405180910390f35b34801561036c57600080fd5b506103876004803603810190610382919061246b565b61222e565b60405161039491906131ba565b60405180910390f35b6000600660009054906101000a900473ffffffffffffffffffffffffffffffffffffffff1673ffffffffffffffffffffffffffffffffffffffff1663dd62ed3e84846040518363ffffffff1660e01b81526004016103fc929190612ef2565b60206040518083038186803b15801561041457600080fd5b505afa158015610428573d6000803e3d6000fd5b505050506040513d601f19601f8201168201806040525081019061044c91906127d7565b905092915050565b6000600160003373ffffffffffffffffffffffffffffffffffffffff1673ffffffffffffffffffffffffffffffffffffffff16815260200190815260200160002060000160009054906101000a900460ff16905090565b806000808273ffffffffffffffffffffffffffffffffffffffff1673ffffffffffffffffffffffffffffffffffffffff16815260200190815260200160002060009054906101000a900460ff1615610538576040517f08c379a000000000000000000000000000000000000000000000000000000000815260040161052f9061319a565b60405180910390fd5b60016000808473ffffffffffffffffffffffffffffffffffffffff1673ffffffffffffffffffffffffffffffffffffffff16815260200190815260200160002060006101000a81548160ff0219169083151502179055506000600160008473ffffffffffffffffffffffffffffffffffffffff1673ffffffffffffffffffffffffffffffffffffffff168152602001908152602001600020600301819055505050565b600360009054906101000a900473ffffffffffffffffffffffffffffffffffffffff1673ffffffffffffffffffffffffffffffffffffffff163373ffffffffffffffffffffffffffffffffffffffff161461066b576040517f08c379a0000000000000000000000000000000000000000000000000000000008152600401610662906130fa565b60405180910390fd5b6000808273ffffffffffffffffffffffffffffffffffffffff1673ffffffffffffffffffffffffffffffffffffffff16815260200190815260200160002060009054906101000a900460ff166106f6576040517f08c379a00000000000000000000000000000000000000000000000000000000081526004016106ed9061301a565b60405180910390fd5b60008060008373ffffffffffffffffffffffffffffffffffffffff1673ffffffffffffffffffffffffffffffffffffffff16815260200190815260200160002060006101000a81548160ff0219169083151502179055506000600160008373ffffffffffffffffffffffffffffffffffffffff1673ffffffffffffffffffffffffffffffffffffffff1681526020019081526020016000206001015490506000600160008473ffffffffffffffffffffffffffffffffffffffff1673ffffffffffffffffffffffffffffffffffffffff168152602001908152602001600020600301549050600081836107e9919061325d565b9050600660009054906101000a900473ffffffffffffffffffffffffffffffffffffffff1673ffffffffffffffffffffffffffffffffffffffff166323b872dd600360009054906101000a900473ffffffffffffffffffffffffffffffffffffffff1686846040518463ffffffff1660e01b815260040161086c93929190612e01565b602060405180830381600087803b15801561088657600080fd5b505af115801561089a573d6000803e3d6000fd5b505050506040513d601f19601f820116820180604052508101906108be91906126c5565b506000600160008673ffffffffffffffffffffffffffffffffffffffff1673ffffffffffffffffffffffffffffffffffffffff16815260200190815260200160002060000160006101000a81548160ff0219169083151502179055506000600160008673ffffffffffffffffffffffffffffffffffffffff1673ffffffffffffffffffffffffffffffffffffffff168152602001908152602001600020600101819055506000600160008673ffffffffffffffffffffffffffffffffffffffff1673ffffffffffffffffffffffffffffffffffffffff168152602001908152602001600020600301819055507f71e6f4c1261be8e49b54ba2f1a50b233ab2530c69abcd4dbd8db3c424418843a848260036040516109de93929190612e6f565b60405180910390a150505050565b6000600660009054906101000a900473ffffffffffffffffffffffffffffffffffffffff1673ffffffffffffffffffffffffffffffffffffffff166370a08231336040518263ffffffff1660e01b8152600401610a499190612dcb565b60206040518083038186803b158015610a6157600080fd5b505afa158015610a75573d6000803e3d6000fd5b505050506040513d601f19601f82011682018060405250810190610a9991906127d7565b905090565b600660009054906101000a900473ffffffffffffffffffffffffffffffffffffffff1681565b6000803373ffffffffffffffffffffffffffffffffffffffff1673ffffffffffffffffffffffffffffffffffffffff16815260200190815260200160002060009054906101000a900460ff16610b4f576040517f08c379a0000000000000000000000000000000000000000000000000000000008152600401610b469061301a565b60405180910390fd5b662386f26fc10000811015610b99576040517f08c379a0000000000000000000000000000000000000000000000000000000008152600401610b909061307a565b60405180910390fd5b600033905060018060008373ffffffffffffffffffffffffffffffffffffffff1673ffffffffffffffffffffffffffffffffffffffff16815260200190815260200160002060000160006101000a81548160ff02191690831515021790555082600160008373ffffffffffffffffffffffffffffffffffffffff1673ffffffffffffffffffffffffffffffffffffffff1681526020019081526020016000206002019080519060200190610c4e9291906122e2565b5081600160008373ffffffffffffffffffffffffffffffffffffffff1673ffffffffffffffffffffffffffffffffffffffff16815260200190815260200160002060010181905550600660009054906101000a900473ffffffffffffffffffffffffffffffffffffffff1673ffffffffffffffffffffffffffffffffffffffff166323b872dd33600360009054906101000a900473ffffffffffffffffffffffffffffffffffffffff16856040518463ffffffff1660e01b8152600401610d1793929190612f1b565b602060405180830381600087803b158015610d3157600080fd5b505af1158015610d45573d6000803e3d6000fd5b505050506040513d601f19601f82011682018060405250810190610d6991906126c5565b50505050565b33600160008273ffffffffffffffffffffffffffffffffffffffff1673ffffffffffffffffffffffffffffffffffffffff16815260200190815260200160002060000160009054906101000a900460ff16610dff576040517f08c379a0000000000000000000000000000000000000000000000000000000008152600401610df690612fda565b60405180910390fd5b6000600160003373ffffffffffffffffffffffffffffffffffffffff1673ffffffffffffffffffffffffffffffffffffffff16815260200190815260200160002060030154905060008111610e89576040517f08c379a0000000000000000000000000000000000000000000000000000000008152600401610e809061309a565b60405180910390fd5b600660009054906101000a900473ffffffffffffffffffffffffffffffffffffffff1673ffffffffffffffffffffffffffffffffffffffff166323b872dd600360009054906101000a900473ffffffffffffffffffffffffffffffffffffffff1633846040518463ffffffff1660e01b8152600401610f0a93929190612e38565b602060405180830381600087803b158015610f2457600080fd5b505af1158015610f38573d6000803e3d6000fd5b505050506040513d601f19601f82011682018060405250810190610f5c91906126c5565b506000600160003373ffffffffffffffffffffffffffffffffffffffff1673ffffffffffffffffffffffffffffffffffffffff168152602001908152602001600020600301819055507f71e6f4c1261be8e49b54ba2f1a50b233ab2530c69abcd4dbd8db3c424418843a33826003604051610fd993929190612f52565b60405180910390a15050565b86600160008273ffffffffffffffffffffffffffffffffffffffff1673ffffffffffffffffffffffffffffffffffffffff16815260200190815260200160002060000160009054906101000a900460ff16611075576040517f08c379a000000000000000000000000000000000000000000000000000000000815260040161106c90612fda565b60405180910390fd5b60018314156110935761108e8888888888600088611656565b6110a4565b6110a38888888888600188611656565b5b5050505050505050565b6002826040516110be9190612db4565b908152602001604051809103902060040160009054906101000a900473ffffffffffffffffffffffffffffffffffffffff1673ffffffffffffffffffffffffffffffffffffffff163373ffffffffffffffffffffffffffffffffffffffff161461115d576040517f08c379a00000000000000000000000000000000000000000000000000000000081526004016111549061303a565b60405180910390fd5b600060028360405161116f9190612db4565b908152602001604051809103902060030154116111c1576040517f08c379a00000000000000000000000000000000000000000000000000000000081526004016111b890612ffa565b60405180910390fd5b60006002836040516111d39190612db4565b90815260200160405180910390206003015490506009600a826111f691906132b3565b61120091906132e4565b9050600081905060006003811115611241577f4e487b7100000000000000000000000000000000000000000000000000000000600052602160045260246000fd5b6002856040516112519190612db4565b908152602001604051809103902060050160149054906101000a900460ff1660038111156112a8577f4e487b7100000000000000000000000000000000000000000000000000000000600052602160045260246000fd5b14156112ca57605a6064836112bd91906132b3565b6112c791906132e4565b90505b6000600660009054906101000a900473ffffffffffffffffffffffffffffffffffffffff1673ffffffffffffffffffffffffffffffffffffffff1663dd62ed3e33306040518363ffffffff1660e01b8152600401611329929190612ef2565b60206040518083038186803b15801561134157600080fd5b505afa158015611355573d6000803e3d6000fd5b505050506040513d601f19601f8201168201806040525081019061137991906127d7565b9050818110156113be576040517f08c379a00000000000000000000000000000000000000000000000000000000081526004016113b59061311a565b60405180910390fd5b600660009054906101000a900473ffffffffffffffffffffffffffffffffffffffff1673ffffffffffffffffffffffffffffffffffffffff166323b872dd3386856040518463ffffffff1660e01b815260040161141d93929190612f1b565b602060405180830381600087803b15801561143757600080fd5b505af115801561144b573d6000803e3d6000fd5b505050506040513d601f19601f8201168201806040525081019061146f91906126c5565b5081600160003373ffffffffffffffffffffffffffffffffffffffff1673ffffffffffffffffffffffffffffffffffffffff16815260200190815260200160002060030160008282546114c2919061333e565b92505081905550600280866040516114da9190612db4565b908152602001604051809103902060050160146101000a81548160ff02191690836003811115611533577f4e487b7100000000000000000000000000000000000000000000000000000000600052602160045260246000fd5b02179055507f71e6f4c1261be8e49b54ba2f1a50b233ab2530c69abcd4dbd8db3c424418843a8483600260405161156c93929190612e6f565b60405180910390a15050505050565b600033600160008273ffffffffffffffffffffffffffffffffffffffff1673ffffffffffffffffffffffffffffffffffffffff16815260200190815260200160002060000160009054906101000a900460ff1661160d576040517f08c379a000000000000000000000000000000000000000000000000000000000815260040161160490612fda565b60405180910390fd5b600160003373ffffffffffffffffffffffffffffffffffffffff1673ffffffffffffffffffffffffffffffffffffffff1681526020019081526020016000206003015491505090565b86600160008273ffffffffffffffffffffffffffffffffffffffff1673ffffffffffffffffffffffffffffffffffffffff16815260200190815260200160002060000160009054906101000a900460ff166116e6576040517f08c379a00000000000000000000000000000000000000000000000000000000081526004016116dd90612fda565b60405180910390fd5b6000600660009054906101000a900473ffffffffffffffffffffffffffffffffffffffff1673ffffffffffffffffffffffffffffffffffffffff1663dd62ed3e33306040518363ffffffff1660e01b8152600401611745929190612ef2565b60206040518083038186803b15801561175d57600080fd5b505afa158015611771573d6000803e3d6000fd5b505050506040513d601f19601f8201168201806040525081019061179591906127d7565b90506000803373ffffffffffffffffffffffffffffffffffffffff1673ffffffffffffffffffffffffffffffffffffffff16815260200190815260200160002060009054906101000a900460ff16611822576040517f08c379a00000000000000000000000000000000000000000000000000000000081526004016118199061301a565b60405180910390fd5b60008511611865576040517f08c379a000000000000000000000000000000000000000000000000000000000815260040161185c9061305a565b60405180910390fd5b828110156118a8576040517f08c379a000000000000000000000000000000000000000000000000000000000815260040161189f9061315a565b60405180910390fd5b848110156118eb576040517f08c379a00000000000000000000000000000000000000000000000000000000081526004016118e2906130ba565b60405180910390fd5b60016003811115611925577f4e487b7100000000000000000000000000000000000000000000000000000000600052602160045260246000fd5b84600381111561195e577f4e487b7100000000000000000000000000000000000000000000000000000000600052602160045260246000fd5b14156119a7578483146119a6576040517f08c379a000000000000000000000000000000000000000000000000000000000815260040161199d9061313a565b60405180910390fd5b5b6000600a846119b691906132b3565b90506009816119c591906132e4565b600160008c73ffffffffffffffffffffffffffffffffffffffff1673ffffffffffffffffffffffffffffffffffffffff1681526020019081526020016000206003016000828254611a16919061325d565b925050819055508060046000828254611a2f919061325d565b92505081905550600660009054906101000a900473ffffffffffffffffffffffffffffffffffffffff1673ffffffffffffffffffffffffffffffffffffffff166323b872dd33600360009054906101000a900473ffffffffffffffffffffffffffffffffffffffff16876040518463ffffffff1660e01b8152600401611ab793929190612f1b565b602060405180830381600087803b158015611ad157600080fd5b505af1158015611ae5573d6000803e3d6000fd5b505050506040513d601f19601f82011682018060405250810190611b0991906126c5565b508760028a604051611b1b9190612db4565b90815260200160405180910390206000019080519060200190611b3f9291906122e2565b508660028a604051611b519190612db4565b90815260200160405180910390206001019080519060200190611b759291906122e2565b508960028a604051611b879190612db4565b908152602001604051809103902060040160006101000a81548173ffffffffffffffffffffffffffffffffffffffff021916908373ffffffffffffffffffffffffffffffffffffffff1602179055503360028a604051611be79190612db4565b908152602001604051809103902060050160006101000a81548173ffffffffffffffffffffffffffffffffffffffff021916908373ffffffffffffffffffffffffffffffffffffffff16021790555060006003811115611c70577f4e487b7100000000000000000000000000000000000000000000000000000000600052602160045260246000fd5b856003811115611ca9577f4e487b7100000000000000000000000000000000000000000000000000000000600052602160045260246000fd5b1415611cec578360028a604051611cc09190612db4565b90815260200160405180910390206003016000828254611ce0919061325d565b92505081905550611d13565b8360028a604051611cfd9190612db4565b9081526020016040518091039020600301819055505b8560028a604051611d249190612db4565b9081526020016040518091039020600201819055508460028a604051611d4a9190612db4565b908152602001604051809103902060050160146101000a81548160ff02191690836003811115611da3577f4e487b7100000000000000000000000000000000000000000000000000000000600052602160045260246000fd5b02179055508560028a604051611db99190612db4565b90815260200160405180910390206003015410611e4157600160028a604051611de29190612db4565b908152602001604051809103902060050160146101000a81548160ff02191690836003811115611e3b577f4e487b7100000000000000000000000000000000000000000000000000000000600052602160045260246000fd5b02179055505b7fd339a2f13d5270409e3552e52f7c3b64f918d17ca285cf3656e9a1a8334ecfb18a60028b604051611e739190612db4565b9081526020016040518091039020600301548b60028d604051611e969190612db4565b908152602001604051809103902060050160149054906101000a900460ff16604051611ec59493929190612ea6565b60405180910390a150505050505050505050565b60003490506000600660009054906101000a900473ffffffffffffffffffffffffffffffffffffffff1673ffffffffffffffffffffffffffffffffffffffff166370a08231600360009054906101000a900473ffffffffffffffffffffffffffffffffffffffff166040518263ffffffff1660e01b8152600401611f5d9190612de6565b60206040518083038186803b158015611f7557600080fd5b505afa158015611f89573d6000803e3d6000fd5b505050506040513d601f19601f82011682018060405250810190611fad91906127d7565b905060008211611ff2576040517f08c379a0000000000000000000000000000000000000000000000000000000008152600401611fe9906130da565b60405180910390fd5b80821115612035576040517f08c379a000000000000000000000000000000000000000000000000000000000815260040161202c9061317a565b60405180910390fd5b600660009054906101000a900473ffffffffffffffffffffffffffffffffffffffff1673ffffffffffffffffffffffffffffffffffffffff166323b872dd600360009054906101000a900473ffffffffffffffffffffffffffffffffffffffff1633856040518463ffffffff1660e01b81526004016120b693929190612e38565b602060405180830381600087803b1580156120d057600080fd5b505af11580156120e4573d6000803e3d6000fd5b505050506040513d601f19601f8201168201806040525081019061210891906126c5565b507ffe1367e498701f2dfab80a3d41740d46fd7cba533430e611917f0f3df823279a8260405161213891906131ba565b60405180910390a15050565b60006002826040516121569190612db4565b908152602001604051809103902060050160149054906101000a900460ff169050919050565b6000600660009054906101000a900473ffffffffffffffffffffffffffffffffffffffff1673ffffffffffffffffffffffffffffffffffffffff166370a08231306040518263ffffffff1660e01b81526004016121d99190612dcb565b60206040518083038186803b1580156121f157600080fd5b505afa158015612205573d6000803e3d6000fd5b505050506040513d601f19601f8201168201806040525081019061222991906127d7565b905090565b6000600660009054906101000a900473ffffffffffffffffffffffffffffffffffffffff1673ffffffffffffffffffffffffffffffffffffffff166370a08231836040518263ffffffff1660e01b815260040161228b9190612dcb565b60206040518083038186803b1580156122a357600080fd5b505afa1580156122b7573d6000803e3d6000fd5b505050506040513d601f19601f820116820180604052508101906122db91906127d7565b9050919050565b8280546122ee9061348d565b90600052602060002090601f0160209004810192826123105760008555612357565b82601f1061232957805160ff1916838001178555612357565b82800160010185558215612357579182015b8281111561235657825182559160200191906001019061233b565b5b5090506123649190612368565b5090565b5b80821115612381576000816000905550600101612369565b5090565b600061239861239384613206565b6131d5565b9050828152602081018484840111156123b057600080fd5b6123bb84828561344b565b509392505050565b6000813590506123d2816135cf565b92915050565b6000813590506123e7816135e6565b92915050565b6000815190506123fc816135fd565b92915050565b60008135905061241181613614565b92915050565b600082601f83011261242857600080fd5b8135612438848260208601612385565b91505092915050565b60008135905061245081613624565b92915050565b60008151905061246581613624565b92915050565b60006020828403121561247d57600080fd5b600061248b848285016123c3565b91505092915050565b6000602082840312156124a657600080fd5b60006124b4848285016123d8565b91505092915050565b600080600080600080600060e0888a0312156124d857600080fd5b60006124e68a828b016123d8565b975050602088013567ffffffffffffffff81111561250357600080fd5b61250f8a828b01612417565b965050604088013567ffffffffffffffff81111561252c57600080fd5b6125388a828b01612417565b955050606088013567ffffffffffffffff81111561255557600080fd5b6125618a828b01612417565b94505060806125728a828b01612441565b93505060a06125838a828b01612402565b92505060c06125948a828b01612441565b91505092959891949750929550565b600080600080600080600060e0888a0312156125be57600080fd5b60006125cc8a828b016123d8565b975050602088013567ffffffffffffffff8111156125e957600080fd5b6125f58a828b01612417565b965050604088013567ffffffffffffffff81111561261257600080fd5b61261e8a828b01612417565b955050606088013567ffffffffffffffff81111561263b57600080fd5b6126478a828b01612417565b94505060806126588a828b01612441565b93505060a06126698a828b01612441565b92505060c061267a8a828b01612441565b91505092959891949750929550565b6000806040838503121561269c57600080fd5b60006126aa858286016123c3565b92505060206126bb858286016123c3565b9150509250929050565b6000602082840312156126d757600080fd5b60006126e5848285016123ed565b91505092915050565b60006020828403121561270057600080fd5b600082013567ffffffffffffffff81111561271a57600080fd5b61272684828501612417565b91505092915050565b6000806040838503121561274257600080fd5b600083013567ffffffffffffffff81111561275c57600080fd5b61276885828601612417565b9250506020612779858286016123d8565b9150509250929050565b6000806040838503121561279657600080fd5b600083013567ffffffffffffffff8111156127b057600080fd5b6127bc85828601612417565b92505060206127cd85828601612441565b9150509250929050565b6000602082840312156127e957600080fd5b60006127f784828501612456565b91505092915050565b612809816133df565b82525050565b61281881613372565b82525050565b61282781613396565b82525050565b612836816133f1565b82525050565b61284581613415565b82525050565b600061285682613236565b6128608185613241565b935061287081856020860161345a565b612879816135aa565b840191505092915050565b600061288f82613236565b6128998185613252565b93506128a981856020860161345a565b80840191505092915050565b60006128c2600c83613241565b91507f4e6f7420612053656c6c657200000000000000000000000000000000000000006000830152602082019050919050565b6000612902602483613241565b91507f416d6f756e7420506169642073686f756c64206265206772656174657220746860008301527f616e2030000000000000000000000000000000000000000000000000000000006020830152604082019050919050565b6000612968601383613241565b91507f55736572206e6f742072656769737465726564000000000000000000000000006000830152602082019050919050565b60006129a8600e83613241565b91507f53656c6c657220496e76616c69640000000000000000000000000000000000006000830152602082019050919050565b60006129e8602483613241565b91507f50726f64756374205072696365206d757374206265206772656174657220746860008301527f616e2030000000000000000000000000000000000000000000000000000000006020830152604082019050919050565b6000612a4e602983613241565b91507f4465706f736974206d6f6e65792073686f756c642062652061746c656173742060008301527f302e3120457468657200000000000000000000000000000000000000000000006020830152604082019050919050565b6000612ab4602183613241565b91507f42616c616e6365206d7573742062652067726561746572207468616e207a657260008301527f6f000000000000000000000000000000000000000000000000000000000000006020830152604082019050919050565b6000612b1a602883613241565b91507f416c6c6f77616e6365206d75737420626520657175616c20746f2050726f647560008301527f63742050726963650000000000000000000000000000000000000000000000006020830152604082019050919050565b6000612b80600f83613241565b91507f53656e6420736f6d6520657468657200000000000000000000000000000000006000830152602082019050919050565b6000612bc0600d83613241565b91507f4e6f7420746865206f776e6572000000000000000000000000000000000000006000830152602082019050919050565b6000612c00602b83613241565b91507f416c6c6f77616e6365206d75737420626520657175616c20746f2053656e642060008301527f746f20437573746f6d65720000000000000000000000000000000000000000006020830152604082019050919050565b6000612c66602583613241565b91507f416d6f756e74206d75737420626520657175616c20746f2050726f647563742060008301527f50726963650000000000000000000000000000000000000000000000000000006020830152604082019050919050565b6000612ccc602883613241565b91507f416c6c6f77616e6365206d75737420626520657175616c20746f20416d6f756e60008301527f7420506179696e670000000000000000000000000000000000000000000000006020830152604082019050919050565b6000612d32601183613241565b91507f4e6f7420656e6f75676820746f6b656e730000000000000000000000000000006000830152602082019050919050565b6000612d72601a83613241565b91507f5573657220697320616c726561647920726567697374657265640000000000006000830152602082019050919050565b612dae816133d5565b82525050565b6000612dc08284612884565b915081905092915050565b6000602082019050612de0600083018461280f565b92915050565b6000602082019050612dfb6000830184612800565b92915050565b6000606082019050612e166000830186612800565b612e236020830185612800565b612e306040830184612da5565b949350505050565b6000606082019050612e4d6000830186612800565b612e5a602083018561280f565b612e676040830184612da5565b949350505050565b6000606082019050612e846000830186612800565b612e916020830185612da5565b612e9e604083018461283c565b949350505050565b6000608082019050612ebb6000830187612800565b612ec86020830186612da5565b8181036040830152612eda818561284b565b9050612ee9606083018461283c565b95945050505050565b6000604082019050612f07600083018561280f565b612f14602083018461280f565b9392505050565b6000606082019050612f30600083018661280f565b612f3d6020830185612800565b612f4a6040830184612da5565b949350505050565b6000606082019050612f67600083018661280f565b612f746020830185612da5565b612f81604083018461283c565b949350505050565b6000602082019050612f9e600083018461281e565b92915050565b6000602082019050612fb9600083018461282d565b92915050565b6000602082019050612fd4600083018461283c565b92915050565b60006020820190508181036000830152612ff3816128b5565b9050919050565b60006020820190508181036000830152613013816128f5565b9050919050565b600060208201905081810360008301526130338161295b565b9050919050565b600060208201905081810360008301526130538161299b565b9050919050565b60006020820190508181036000830152613073816129db565b9050919050565b6000602082019050818103600083015261309381612a41565b9050919050565b600060208201905081810360008301526130b381612aa7565b9050919050565b600060208201905081810360008301526130d381612b0d565b9050919050565b600060208201905081810360008301526130f381612b73565b9050919050565b6000602082019050818103600083015261311381612bb3565b9050919050565b6000602082019050818103600083015261313381612bf3565b9050919050565b6000602082019050818103600083015261315381612c59565b9050919050565b6000602082019050818103600083015261317381612cbf565b9050919050565b6000602082019050818103600083015261319381612d25565b9050919050565b600060208201905081810360008301526131b381612d65565b9050919050565b60006020820190506131cf6000830184612da5565b92915050565b6000604051905081810181811067ffffffffffffffff821117156131fc576131fb61357b565b5b8060405250919050565b600067ffffffffffffffff8211156132215761322061357b565b5b601f19601f8301169050602081019050919050565b600081519050919050565b600082825260208201905092915050565b600081905092915050565b6000613268826133d5565b9150613273836133d5565b9250827fffffffffffffffffffffffffffffffffffffffffffffffffffffffffffffffff038211156132a8576132a76134bf565b5b828201905092915050565b60006132be826133d5565b91506132c9836133d5565b9250826132d9576132d86134ee565b5b828204905092915050565b60006132ef826133d5565b91506132fa836133d5565b9250817fffffffffffffffffffffffffffffffffffffffffffffffffffffffffffffffff0483118215151615613333576133326134bf565b5b828202905092915050565b6000613349826133d5565b9150613354836133d5565b925082821015613367576133666134bf565b5b828203905092915050565b600061337d826133b5565b9050919050565b600061338f826133b5565b9050919050565b60008115159050919050565b60008190506133b0826135bb565b919050565b600073ffffffffffffffffffffffffffffffffffffffff82169050919050565b6000819050919050565b60006133ea82613427565b9050919050565b60006133fc82613403565b9050919050565b600061340e826133b5565b9050919050565b6000613420826133a2565b9050919050565b600061343282613439565b9050919050565b6000613444826133b5565b9050919050565b82818337600083830152505050565b60005b8381101561347857808201518184015260208101905061345d565b83811115613487576000848401525b50505050565b600060028204905060018216806134a557607f821691505b602082108114156134b9576134b861354c565b5b50919050565b7f4e487b7100000000000000000000000000000000000000000000000000000000600052601160045260246000fd5b7f4e487b7100000000000000000000000000000000000000000000000000000000600052601260045260246000fd5b7f4e487b7100000000000000000000000000000000000000000000000000000000600052602160045260246000fd5b7f4e487b7100000000000000000000000000000000000000000000000000000000600052602260045260246000fd5b7f4e487b7100000000000000000000000000000000000000000000000000000000600052604160045260246000fd5b6000601f19601f8301169050919050565b600481106135cc576135cb61351d565b5b50565b6135d881613372565b81146135e357600080fd5b50565b6135ef81613384565b81146135fa57600080fd5b50565b61360681613396565b811461361157600080fd5b50565b6004811061362157600080fd5b50565b61362d816133d5565b811461363857600080fd5b5056fea26469706673582212200d7f7294f607cc31fc2954bf5f44f29f9a7ed479607414ce7a82d3f9e7a00e5664736f6c63430008000033",
  "immutableReferences": {},
  "source": "//SPDX-License-Identifier: MIT\n\npragma solidity >=0.4.22 <0.9.0;\n\nimport \"@openzeppelin/contracts/token/ERC20/IERC20.sol\";\n\ncontract Blocketplace {\n    enum PaymentStatus {\n        PARTIAL,\n        DONE,\n        REFUNDED,\n        WITHDRAW\n    }\n\n    struct Order {\n        string product_id;\n        string name;\n        uint256 price;\n        uint256 amountPaid;\n        address payable seller;\n        address payable buyer;\n        PaymentStatus paymentStatus;\n    }\n\n    struct Account {\n        bool isSeller;\n        uint256 bankGuarantee;\n        string name;\n        uint256 balance;\n    }\n\n    mapping(address => bool) members;\n    mapping(address => Account) accounts;\n    mapping(string => Order) ordersPlaced;\n\n    address payable deployer;\n    uint256 balance;\n    address blocketPlaceAddr;\n\n    IERC20 public bkt;\n\n    constructor(address bktAddress) payable {\n        deployer = payable(msg.sender);\n        bkt = IERC20(bktAddress);\n        blocketPlaceAddr = bktAddress;\n    }\n\n    modifier onlyOwner() {\n        require(msg.sender == deployer, \"Not the owner\");\n        _;\n    }\n\n    modifier userNotRegistered(address addr) {\n        require(!members[addr], \"User is already registered\");\n        _;\n    }\n\n    modifier isSeller(address sellerAddr) {\n        require(accounts[sellerAddr].isSeller, \"Not a Seller\");\n        _;\n    }\n\n    event BoughtTokens(uint256 amount);\n    event PaymentDone(\n        address payer,\n        uint256 amount,\n        PaymentStatus paymentStatus\n    );\n    event PaymentDone(\n        address payer,\n        uint256 amount,\n        string orderId,\n        PaymentStatus paymentStatus\n    );\n\n    function registerUser(address addr) public userNotRegistered(addr) {\n        members[addr] = true;\n        accounts[addr].balance = 0;\n    }\n\n    function registerUserAsSeller(\n        string memory memberName,\n        uint256 depositAmount\n    ) public {\n        require(members[msg.sender], \"User not registered\");\n        require(\n            depositAmount >= 0.01 ether,\n            \"Deposit money should be atleast 0.1 Ether\"\n        );\n\n        address senderAddress = msg.sender;\n        accounts[senderAddress].isSeller = true;\n        accounts[senderAddress].name = memberName;\n        accounts[senderAddress].bankGuarantee = depositAmount;\n        bkt.transferFrom(msg.sender, deployer, depositAmount);\n    }\n\n    function isUserSeller() public view returns (bool) {\n        return accounts[msg.sender].isSeller;\n    }\n\n    function getSellerBalance()\n        public\n        view\n        isSeller(msg.sender)\n        returns (uint256)\n    {\n        return accounts[msg.sender].balance;\n    }\n\n    function getSomethingBalance() public view returns (uint256) {\n        return bkt.balanceOf(msg.sender);\n    }\n\n    function getOrderStatus(string memory orderId)\n        public\n        view\n        returns (PaymentStatus)\n    {\n        return ordersPlaced[orderId].paymentStatus;\n    }\n\n    function buy() public payable {\n        uint256 amountToBuy = msg.value;\n        uint256 bktBalance = bkt.balanceOf(deployer);\n        require(amountToBuy > 0, \"Send some ether\");\n        require(amountToBuy <= bktBalance, \"Not enough tokens\");\n        bkt.transferFrom(deployer, msg.sender, amountToBuy);\n        emit BoughtTokens(amountToBuy);\n    }\n\n    function withdrawBalance() public isSeller(msg.sender) {\n        uint256 bal = accounts[msg.sender].balance;\n        require(bal > 0, \"Balance must be greater than zero\");\n\n        bkt.transferFrom(deployer, msg.sender, bal);\n\n        accounts[msg.sender].balance = 0;\n        emit PaymentDone(msg.sender, bal, PaymentStatus.WITHDRAW);\n    }\n\n    function unregisterUser(address payable userAddress) public onlyOwner {\n        require(members[userAddress], \"User not registered\");\n\n        members[userAddress] = false;\n\n        uint256 bankG = accounts[userAddress].bankGuarantee;\n        uint256 bal = accounts[userAddress].balance;\n\n        uint256 amountToBePaid = bankG + bal;\n\n        bkt.transferFrom(deployer, userAddress, amountToBePaid);\n\n        accounts[userAddress].isSeller = false;\n        accounts[userAddress].bankGuarantee = 0;\n        accounts[userAddress].balance = 0;\n\n        emit PaymentDone(userAddress, amountToBePaid, PaymentStatus.WITHDRAW);\n    }\n\n    function getBalance(address addr) public view returns (uint256) {\n        return bkt.balanceOf(addr);\n    }\n\n    function getBalanceSC() public view returns (uint256) {\n        return bkt.balanceOf(address(this));\n    }\n\n    function getAllowance(address addr1, address addr2)\n        public\n        view\n        returns (uint256)\n    {\n        return bkt.allowance(addr1, addr2);\n    }\n\n    function payForOrder(\n        address payable sellerAddr,\n        string memory orderId,\n        string memory productId,\n        string memory productName,\n        uint256 productPrice,\n        uint256 paymentStatus,\n        uint256 amountPaying\n    ) public isSeller(sellerAddr) {\n        if (paymentStatus == 1) {\n            payAmountForOrder(\n                sellerAddr,\n                orderId,\n                productId,\n                productName,\n                productPrice,\n                PaymentStatus.PARTIAL,\n                amountPaying\n            );\n        } else {\n            payAmountForOrder(\n                sellerAddr,\n                orderId,\n                productId,\n                productName,\n                productPrice,\n                PaymentStatus.DONE,\n                amountPaying\n            );\n        }\n    }\n\n    function payAmountForOrder(\n        address payable sellerAddr,\n        string memory orderId,\n        string memory productId,\n        string memory productName,\n        uint256 productPrice,\n        PaymentStatus paymentStatus,\n        uint256 amountPaying\n    ) public isSeller(sellerAddr) {\n        uint256 allowance = bkt.allowance(msg.sender, address(this));\n\n        require(members[msg.sender], \"User not registered\");\n        require(productPrice > 0, \"Product Price must be greater than 0\");\n        require(\n            allowance >= amountPaying,\n            \"Allowance must be equal to Amount Paying\"\n        );\n        require(\n            allowance >= productPrice,\n            \"Allowance must be equal to Product Price\"\n        );\n        if (paymentStatus == PaymentStatus.DONE) {\n            require(\n                amountPaying == productPrice,\n                \"Amount must be equal to Product Price\"\n            );\n        }\n\n        uint256 scCut = amountPaying / 10;\n        accounts[sellerAddr].balance += scCut * 9;\n        balance += scCut;\n\n        //bkt.transferFrom(msg.sender, sellerAddr, scCut * 9);\n        bkt.transferFrom(msg.sender, deployer, amountPaying);\n\n        ordersPlaced[orderId].product_id = productId;\n        ordersPlaced[orderId].name = productName;\n        ordersPlaced[orderId].seller = sellerAddr;\n        ordersPlaced[orderId].buyer = payable(msg.sender);\n        if (paymentStatus == PaymentStatus.PARTIAL) {\n            ordersPlaced[orderId].amountPaid += amountPaying;\n        } else {\n            ordersPlaced[orderId].amountPaid = amountPaying;\n        }\n        ordersPlaced[orderId].price = productPrice;\n\n        ordersPlaced[orderId].paymentStatus = paymentStatus;\n        if (ordersPlaced[orderId].amountPaid >= productPrice) {\n            ordersPlaced[orderId].paymentStatus = PaymentStatus.DONE;\n        }\n\n        emit PaymentDone(\n            sellerAddr,\n            ordersPlaced[orderId].amountPaid,\n            orderId,\n            ordersPlaced[orderId].paymentStatus\n        );\n    }\n\n    function refund(string memory orderId, address payable buyerAddress)\n        public\n    {\n        require(msg.sender == ordersPlaced[orderId].seller, \"Seller Invalid\");\n        require(\n            ordersPlaced[orderId].amountPaid > 0,\n            \"Amount Paid should be greater than 0\"\n        );\n\n        uint256 amount = ordersPlaced[orderId].amountPaid;\n        amount = (amount / 10) * 9;\n        uint256 amountToSend = amount;\n        if (ordersPlaced[orderId].paymentStatus == PaymentStatus.PARTIAL) {\n            amountToSend = (amount / 100) * 90;\n        }\n\n        uint256 allowance = bkt.allowance(msg.sender, address(this));\n        require(\n            allowance >= amountToSend,\n            \"Allowance must be equal to Send to Customer\"\n        );\n\n        bkt.transferFrom(msg.sender, buyerAddress, amountToSend);\n\n        accounts[msg.sender].balance -= amountToSend;\n        ordersPlaced[orderId].paymentStatus = PaymentStatus.REFUNDED;\n\n        emit PaymentDone(buyerAddress, amountToSend, PaymentStatus.REFUNDED);\n    }\n}\n",
  "sourcePath": "/Volumes/Files/Blockchain/blockchain-project/contract/contracts/Blocketplace.sol",
  "compiler": {
    "name": "solc",
    "version": "0.8.0+commit.c7dfd78e.Emscripten.clang"
  },
  "schemaVersion": "3.4.5",
  "updatedAt": "2022-05-08T20:28:20.759Z",
  "networkType": "ethereum",
  "devdoc": {
    "kind": "dev",
    "methods": {},
    "version": 1
  },
  "userdoc": {
    "kind": "user",
    "methods": {},
    "version": 1
  }
}