{
  "contractName": "Blocketplace",
  "abi": [
    {
      "inputs": [],
      "stateMutability": "payable",
      "type": "constructor",
      "payable": true
    },
    {
      "inputs": [
        {
          "internalType": "address",
          "name": "addr",
          "type": "address"
        }
      ],
      "name": "registerUser",
      "outputs": [],
      "stateMutability": "nonpayable",
      "type": "function"
    },
    {
      "inputs": [
        {
          "internalType": "string",
          "name": "memberName",
          "type": "string"
        }
      ],
      "name": "registerUserAsSeller",
      "outputs": [],
      "stateMutability": "payable",
      "type": "function",
      "payable": true
    },
    {
      "inputs": [],
      "name": "isUserSeller",
      "outputs": [
        {
          "internalType": "bool",
          "name": "",
          "type": "bool"
        }
      ],
      "stateMutability": "view",
      "type": "function",
      "constant": true
    },
    {
      "inputs": [],
      "name": "getSellerBalance",
      "outputs": [
        {
          "internalType": "uint256",
          "name": "",
          "type": "uint256"
        }
      ],
      "stateMutability": "view",
      "type": "function",
      "constant": true
    },
    {
      "inputs": [
        {
          "internalType": "string",
          "name": "orderId",
          "type": "string"
        }
      ],
      "name": "getOrderStatus",
      "outputs": [
        {
          "internalType": "enum Blocketplace.PaymentStatus",
          "name": "",
          "type": "uint8"
        }
      ],
      "stateMutability": "view",
      "type": "function",
      "constant": true
    },
    {
      "inputs": [],
      "name": "withdrawBalance",
      "outputs": [],
      "stateMutability": "payable",
      "type": "function",
      "payable": true
    },
    {
      "inputs": [
        {
          "internalType": "address payable",
          "name": "userAddress",
          "type": "address"
        }
      ],
      "name": "unregisterUser",
      "outputs": [],
      "stateMutability": "payable",
      "type": "function",
      "payable": true
    },
    {
      "inputs": [
        {
          "internalType": "address payable",
          "name": "sellerAddr",
          "type": "address"
        },
        {
          "internalType": "string",
          "name": "orderId",
          "type": "string"
        },
        {
          "internalType": "string",
          "name": "productId",
          "type": "string"
        },
        {
          "internalType": "string",
          "name": "productName",
          "type": "string"
        },
        {
          "internalType": "uint256",
          "name": "productPrice",
          "type": "uint256"
        },
        {
          "internalType": "uint256",
          "name": "paymentStatus",
          "type": "uint256"
        }
      ],
      "name": "payForOrder",
      "outputs": [],
      "stateMutability": "payable",
      "type": "function",
      "payable": true
    },
    {
      "inputs": [
        {
          "internalType": "address payable",
          "name": "sellerAddr",
          "type": "address"
        },
        {
          "internalType": "string",
          "name": "orderId",
          "type": "string"
        },
        {
          "internalType": "string",
          "name": "productId",
          "type": "string"
        },
        {
          "internalType": "string",
          "name": "productName",
          "type": "string"
        },
        {
          "internalType": "uint256",
          "name": "productPrice",
          "type": "uint256"
        },
        {
          "internalType": "enum Blocketplace.PaymentStatus",
          "name": "paymentStatus",
          "type": "uint8"
        }
      ],
      "name": "payAmountForOrder",
      "outputs": [],
      "stateMutability": "payable",
      "type": "function",
      "payable": true
    },
    {
      "inputs": [
        {
          "internalType": "string",
          "name": "orderId",
          "type": "string"
        },
        {
          "internalType": "address payable",
          "name": "buyerAddress",
          "type": "address"
        }
      ],
      "name": "refund",
      "outputs": [],
      "stateMutability": "payable",
      "type": "function",
      "payable": true
    }
  ],
  "bytecode": "0x608060405233600360006101000a81548173ffffffffffffffffffffffffffffffffffffffff021916908373ffffffffffffffffffffffffffffffffffffffff1602179055506122cf806100546000396000f3fe6080604052600436106100915760003560e01c806360997a111161005957806360997a111461038257806371cc805a1461043d5780637a9dae9614610518578063aedfb5d314610543578063c56d80561461062a57610091565b80631e738b0b146100965780631ff6ff0a146102b65780632199d5cd146102e357806321f2ca3b146103345780635fd8c71014610378575b600080fd5b6102b4600480360360c08110156100ac57600080fd5b81019080803573ffffffffffffffffffffffffffffffffffffffff169060200190929190803590602001906401000000008111156100e957600080fd5b8201836020820111156100fb57600080fd5b8035906020019184600183028401116401000000008311171561011d57600080fd5b91908080601f016020809104026020016040519081016040528093929190818152602001838380828437600081840152601f19601f8201169050808301925050505050505091929192908035906020019064010000000081111561018057600080fd5b82018360208201111561019257600080fd5b803590602001918460018302840111640100000000831117156101b457600080fd5b91908080601f016020809104026020016040519081016040528093929190818152602001838380828437600081840152601f19601f8201169050808301925050505050505091929192908035906020019064010000000081111561021757600080fd5b82018360208201111561022957600080fd5b8035906020019184600183028401116401000000008311171561024b57600080fd5b91908080601f016020809104026020016040519081016040528093929190818152602001838380828437600081840152601f19601f82011690508083019250505050505050919291929080359060200190929190803560ff169060200190929190505050610847565b005b3480156102c257600080fd5b506102cb611083565b60405180821515815260200191505060405180910390f35b3480156102ef57600080fd5b506103326004803603602081101561030657600080fd5b81019080803573ffffffffffffffffffffffffffffffffffffffff1690602001909291905050506110da565b005b6103766004803603602081101561034a57600080fd5b81019080803573ffffffffffffffffffffffffffffffffffffffff16906020019092919050505061123d565b005b6103806115dc565b005b61043b6004803603602081101561039857600080fd5b81019080803590602001906401000000008111156103b557600080fd5b8201836020820111156103c757600080fd5b803590602001918460018302840111640100000000831117156103e957600080fd5b91908080601f016020809104026020016040519081016040528093929190818152602001838380828437600081840152601f19601f8201169050808301925050505050505091929192905050506117d2565b005b6105166004803603604081101561045357600080fd5b810190808035906020019064010000000081111561047057600080fd5b82018360208201111561048257600080fd5b803590602001918460018302840111640100000000831117156104a457600080fd5b91908080601f016020809104026020016040519081016040528093929190818152602001838380828437600081840152601f19601f820116905080830192505050505050509192919290803573ffffffffffffffffffffffffffffffffffffffff1690602001909291905050506119f2565b005b34801561052457600080fd5b5061052d611e95565b6040518082815260200191505060405180910390f35b34801561054f57600080fd5b506106096004803603602081101561056657600080fd5b810190808035906020019064010000000081111561058357600080fd5b82018360208201111561059557600080fd5b803590602001918460018302840111640100000000831117156105b757600080fd5b91908080601f016020809104026020016040519081016040528093929190818152602001838380828437600081840152601f19601f820116905080830192505050505050509192919290505050611fa3565b6040518082600281111561061957fe5b815260200191505060405180910390f35b610845600480360360c081101561064057600080fd5b81019080803573ffffffffffffffffffffffffffffffffffffffff1690602001909291908035906020019064010000000081111561067d57600080fd5b82018360208201111561068f57600080fd5b803590602001918460018302840111640100000000831117156106b157600080fd5b91908080601f016020809104026020016040519081016040528093929190818152602001838380828437600081840152601f19601f8201169050808301925050505050505091929192908035906020019064010000000081111561071457600080fd5b82018360208201111561072657600080fd5b8035906020019184600183028401116401000000008311171561074857600080fd5b91908080601f016020809104026020016040519081016040528093929190818152602001838380828437600081840152601f19601f820116905080830192505050505050509192919290803590602001906401000000008111156107ab57600080fd5b8201836020820111156107bd57600080fd5b803590602001918460018302840111640100000000831117156107df57600080fd5b91908080601f016020809104026020016040519081016040528093929190818152602001838380828437600081840152601f19601f8201169050808301925050505050505091929192908035906020019092919080359060200190929190505050612026565b005b85600160008273ffffffffffffffffffffffffffffffffffffffff1673ffffffffffffffffffffffffffffffffffffffff16815260200190815260200160002060000160009054906101000a900460ff1661090a576040517f08c379a000000000000000000000000000000000000000000000000000000000815260040180806020018281038252600c8152602001807f4e6f7420612053656c6c6572000000000000000000000000000000000000000081525060200191505060405180910390fd5b60003490506000803373ffffffffffffffffffffffffffffffffffffffff1673ffffffffffffffffffffffffffffffffffffffff16815260200190815260200160002060009054906101000a900460ff166109cd576040517f08c379a00000000000000000000000000000000000000000000000000000000081526004018080602001828103825260138152602001807f55736572206e6f7420726567697374657265640000000000000000000000000081525060200191505060405180910390fd5b60008411610a26576040517f08c379a00000000000000000000000000000000000000000000000000000000081526004018080602001828103825260248152602001806122056024913960400191505060405180910390fd5b60016002811115610a3357fe5b836002811115610a3f57fe5b1415610a9e57808414610a9d576040517f08c379a00000000000000000000000000000000000000000000000000000000081526004018080602001828103825260248152602001806121bd6024913960400191505060405180910390fd5b5b6000600a8281610aaa57fe5b04905060098102600160008b73ffffffffffffffffffffffffffffffffffffffff1673ffffffffffffffffffffffffffffffffffffffff1681526020019081526020016000206003016000828254019250508190555080600460008282540192505081905550866002896040518082805190602001908083835b60208310610b475780518252602082019150602081019050602083039250610b24565b6001836020036101000a03801982511681845116808217855250505050505090500191505090815260200160405180910390206000019080519060200190610b9092919061211f565b50856002896040518082805190602001908083835b60208310610bc85780518252602082019150602081019050602083039250610ba5565b6001836020036101000a03801982511681845116808217855250505050505090500191505090815260200160405180910390206001019080519060200190610c1192919061211f565b50886002896040518082805190602001908083835b60208310610c495780518252602082019150602081019050602083039250610c26565b6001836020036101000a038019825116818451168082178552505050505050905001915050908152602001604051809103902060040160006101000a81548173ffffffffffffffffffffffffffffffffffffffff021916908373ffffffffffffffffffffffffffffffffffffffff160217905550336002896040518082805190602001908083835b60208310610cf45780518252602082019150602081019050602083039250610cd1565b6001836020036101000a038019825116818451168082178552505050505050905001915050908152602001604051809103902060050160006101000a81548173ffffffffffffffffffffffffffffffffffffffff021916908373ffffffffffffffffffffffffffffffffffffffff16021790555060006002811115610d7557fe5b846002811115610d8157fe5b1415610e0657816002896040518082805190602001908083835b60208310610dbe5780518252602082019150602081019050602083039250610d9b565b6001836020036101000a038019825116818451168082178552505050505050905001915050908152602001604051809103902060030160008282540192505081905550610e78565b816002896040518082805190602001908083835b60208310610e3d5780518252602082019150602081019050602083039250610e1a565b6001836020036101000a0380198251168184511680821785525050505050509050019150509081526020016040518091039020600301819055505b846002896040518082805190602001908083835b60208310610eaf5780518252602082019150602081019050602083039250610e8c565b6001836020036101000a038019825116818451168082178552505050505050905001915050908152602001604051809103902060020181905550836002896040518082805190602001908083835b60208310610f205780518252602082019150602081019050602083039250610efd565b6001836020036101000a038019825116818451168082178552505050505050905001915050908152602001604051809103902060050160146101000a81548160ff02191690836002811115610f7157fe5b0217905550846002896040518082805190602001908083835b60208310610fad5780518252602082019150602081019050602083039250610f8a565b6001836020036101000a038019825116818451168082178552505050505050905001915050908152602001604051809103902060030154106110785760016002896040518082805190602001908083835b602083106110215780518252602082019150602081019050602083039250610ffe565b6001836020036101000a038019825116818451168082178552505050505050905001915050908152602001604051809103902060050160146101000a81548160ff0219169083600281111561107257fe5b02179055505b505050505050505050565b6000600160003373ffffffffffffffffffffffffffffffffffffffff1673ffffffffffffffffffffffffffffffffffffffff16815260200190815260200160002060000160009054906101000a900460ff16905090565b806000808273ffffffffffffffffffffffffffffffffffffffff1673ffffffffffffffffffffffffffffffffffffffff16815260200190815260200160002060009054906101000a900460ff161561119a576040517f08c379a000000000000000000000000000000000000000000000000000000000815260040180806020018281038252601a8152602001807f5573657220697320616c7265616479207265676973746572656400000000000081525060200191505060405180910390fd5b60016000808473ffffffffffffffffffffffffffffffffffffffff1673ffffffffffffffffffffffffffffffffffffffff16815260200190815260200160002060006101000a81548160ff0219169083151502179055506000600160008473ffffffffffffffffffffffffffffffffffffffff1673ffffffffffffffffffffffffffffffffffffffff168152602001908152602001600020600301819055505050565b600360009054906101000a900473ffffffffffffffffffffffffffffffffffffffff1673ffffffffffffffffffffffffffffffffffffffff163373ffffffffffffffffffffffffffffffffffffffff1614611300576040517f08c379a000000000000000000000000000000000000000000000000000000000815260040180806020018281038252600d8152602001807f4e6f7420746865206f776e65720000000000000000000000000000000000000081525060200191505060405180910390fd5b6000808273ffffffffffffffffffffffffffffffffffffffff1673ffffffffffffffffffffffffffffffffffffffff16815260200190815260200160002060009054906101000a900460ff166113be576040517f08c379a00000000000000000000000000000000000000000000000000000000081526004018080602001828103825260138152602001807f55736572206e6f7420726567697374657265640000000000000000000000000081525060200191505060405180910390fd5b60008060008373ffffffffffffffffffffffffffffffffffffffff1673ffffffffffffffffffffffffffffffffffffffff16815260200190815260200160002060006101000a81548160ff0219169083151502179055506000600160008373ffffffffffffffffffffffffffffffffffffffff1673ffffffffffffffffffffffffffffffffffffffff1681526020019081526020016000206001015490506000600160008473ffffffffffffffffffffffffffffffffffffffff1673ffffffffffffffffffffffffffffffffffffffff1681526020019081526020016000206003015490508273ffffffffffffffffffffffffffffffffffffffff166108fc8284019081150290604051600060405180830381858888f193505050501580156114eb573d6000803e3d6000fd5b506000600160008573ffffffffffffffffffffffffffffffffffffffff1673ffffffffffffffffffffffffffffffffffffffff16815260200190815260200160002060000160006101000a81548160ff0219169083151502179055506000600160008573ffffffffffffffffffffffffffffffffffffffff1673ffffffffffffffffffffffffffffffffffffffff168152602001908152602001600020600101819055506000600160008573ffffffffffffffffffffffffffffffffffffffff1673ffffffffffffffffffffffffffffffffffffffff16815260200190815260200160002060030181905550505050565b33600160008273ffffffffffffffffffffffffffffffffffffffff1673ffffffffffffffffffffffffffffffffffffffff16815260200190815260200160002060000160009054906101000a900460ff1661169f576040517f08c379a000000000000000000000000000000000000000000000000000000000815260040180806020018281038252600c8152602001807f4e6f7420612053656c6c6572000000000000000000000000000000000000000081525060200191505060405180910390fd5b6000600160003373ffffffffffffffffffffffffffffffffffffffff1673ffffffffffffffffffffffffffffffffffffffff1681526020019081526020016000206003015490506000811161173f576040517f08c379a00000000000000000000000000000000000000000000000000000000081526004018080602001828103825260218152602001806122796021913960400191505060405180910390fd5b3373ffffffffffffffffffffffffffffffffffffffff166108fc829081150290604051600060405180830381858888f19350505050158015611785573d6000803e3d6000fd5b506000600160003373ffffffffffffffffffffffffffffffffffffffff1673ffffffffffffffffffffffffffffffffffffffff168152602001908152602001600020600301819055505050565b6000803373ffffffffffffffffffffffffffffffffffffffff1673ffffffffffffffffffffffffffffffffffffffff16815260200190815260200160002060009054906101000a900460ff16611890576040517f08c379a00000000000000000000000000000000000000000000000000000000081526004018080602001828103825260138152602001807f55736572206e6f7420726567697374657265640000000000000000000000000081525060200191505060405180910390fd5b67016345785d8a00003410156118f1576040517f08c379a00000000000000000000000000000000000000000000000000000000081526004018080602001828103825260298152602001806122506029913960400191505060405180910390fd5b600033905060018060008373ffffffffffffffffffffffffffffffffffffffff1673ffffffffffffffffffffffffffffffffffffffff16815260200190815260200160002060000160006101000a81548160ff02191690831515021790555081600160008373ffffffffffffffffffffffffffffffffffffffff1673ffffffffffffffffffffffffffffffffffffffff16815260200190815260200160002060020190805190602001906119a692919061211f565b5034600160008373ffffffffffffffffffffffffffffffffffffffff1673ffffffffffffffffffffffffffffffffffffffff168152602001908152602001600020600101819055505050565b6002826040518082805190602001908083835b60208310611a285780518252602082019150602081019050602083039250611a05565b6001836020036101000a038019825116818451168082178552505050505050905001915050908152602001604051809103902060040160009054906101000a900473ffffffffffffffffffffffffffffffffffffffff1673ffffffffffffffffffffffffffffffffffffffff163373ffffffffffffffffffffffffffffffffffffffff1614611b1f576040517f08c379a000000000000000000000000000000000000000000000000000000000815260040180806020018281038252600e8152602001807f53656c6c657220496e76616c696400000000000000000000000000000000000081525060200191505060405180910390fd5b60006002836040518082805190602001908083835b60208310611b575780518252602082019150602081019050602083039250611b34565b6001836020036101000a03801982511681845116808217855250505050505090500191505090815260200160405180910390206003015411611be4576040517f08c379a00000000000000000000000000000000000000000000000000000000081526004018080602001828103825260248152602001806121e16024913960400191505060405180910390fd5b60006002836040518082805190602001908083835b60208310611c1c5780518252602082019150602081019050602083039250611bf9565b6001836020036101000a03801982511681845116808217855250505050505090500191505090815260200160405180910390206003015490506009600a8281611c6157fe5b04029050600081905060006002811115611c7757fe5b6002856040518082805190602001908083835b60208310611cad5780518252602082019150602081019050602083039250611c8a565b6001836020036101000a038019825116818451168082178552505050505050905001915050908152602001604051809103902060050160149054906101000a900460ff166002811115611cfc57fe5b1415611d1357605a60648381611d0e57fe5b040290505b803414611d6b576040517f08c379a00000000000000000000000000000000000000000000000000000000081526004018080602001828103825260278152602001806122296027913960400191505060405180910390fd5b8273ffffffffffffffffffffffffffffffffffffffff166108fc829081150290604051600060405180830381858888f19350505050158015611db1573d6000803e3d6000fd5b5080600160003373ffffffffffffffffffffffffffffffffffffffff1673ffffffffffffffffffffffffffffffffffffffff16815260200190815260200160002060030160008282540392505081905550600280856040518082805190602001908083835b60208310611e395780518252602082019150602081019050602083039250611e16565b6001836020036101000a038019825116818451168082178552505050505050905001915050908152602001604051809103902060050160146101000a81548160ff02191690836002811115611e8a57fe5b021790555050505050565b600033600160008273ffffffffffffffffffffffffffffffffffffffff1673ffffffffffffffffffffffffffffffffffffffff16815260200190815260200160002060000160009054906101000a900460ff16611f5a576040517f08c379a000000000000000000000000000000000000000000000000000000000815260040180806020018281038252600c8152602001807f4e6f7420612053656c6c6572000000000000000000000000000000000000000081525060200191505060405180910390fd5b600160003373ffffffffffffffffffffffffffffffffffffffff1673ffffffffffffffffffffffffffffffffffffffff1681526020019081526020016000206003015491505090565b60006002826040518082805190602001908083835b60208310611fdb5780518252602082019150602081019050602083039250611fb8565b6001836020036101000a038019825116818451168082178552505050505050905001915050908152602001604051809103902060050160149054906101000a900460ff169050919050565b85600160008273ffffffffffffffffffffffffffffffffffffffff1673ffffffffffffffffffffffffffffffffffffffff16815260200190815260200160002060000160009054906101000a900460ff166120e9576040517f08c379a000000000000000000000000000000000000000000000000000000000815260040180806020018281038252600c8152602001807f4e6f7420612053656c6c6572000000000000000000000000000000000000000081525060200191505060405180910390fd5b60018214156121065761210187878787876000610847565b612116565b61211587878787876001610847565b5b50505050505050565b828054600181600116156101000203166002900490600052602060002090601f016020900481019282601f1061216057805160ff191683800117855561218e565b8280016001018555821561218e579182015b8281111561218d578251825591602001919060010190612172565b5b50905061219b919061219f565b5090565b5b808211156121b85760008160009055506001016121a0565b509056fe56616c7565206d75737420626520657175616c20746f2050726f64756374205072696365416d6f756e7420506169642073686f756c642062652067726561746572207468616e203050726f64756374205072696365206d7573742062652067726561746572207468616e203056616c7565206d75737420626520657175616c20746f2053656e6420746f20437573746f6d65724465706f736974206d6f6e65792073686f756c642062652061746c6561737420302e3120457468657242616c616e6365206d7573742062652067726561746572207468616e207a65726fa264697066735822122066ac8a195133a64f64a75a570dc7f9c65eee352236bd7c112fa551ffb06312f764736f6c634300060c0033",
  "immutableReferences": {},
  "source": "//SPDX-License-Identifier: MIT\n\npragma solidity >=0.4.22 <0.9.0;\n\ncontract Blocketplace {\n    enum PaymentStatus {\n        PARTIAL,\n        DONE,\n        REFUNDED\n    }\n\n    struct Order {\n        string product_id;\n        string name;\n        uint256 price;\n        uint256 amountPaid;\n        address payable seller;\n        address payable buyer;\n        PaymentStatus paymentStatus;\n    }\n\n    struct Account {\n        bool isSeller;\n        uint256 bankGuarantee;\n        string name;\n        uint256 balance;\n    }\n\n    mapping(address => bool) members;\n    mapping(address => Account) accounts;\n    mapping(string => Order) ordersPlaced;\n\n    address owner;\n    uint256 balance;\n\n    constructor() public payable {\n        owner = msg.sender;\n    }\n\n    modifier onlyOwner() {\n        require(msg.sender == owner, \"Not the owner\");\n        _;\n    }\n\n    modifier userNotRegistered(address addr) {\n        require(!members[addr], \"User is already registered\");\n        _;\n    }\n\n    modifier isSeller(address sellerAddr) {\n        require(accounts[sellerAddr].isSeller, \"Not a Seller\");\n        _;\n    }\n\n    function registerUser(address addr) public userNotRegistered(addr) {\n        members[addr] = true;\n        accounts[addr].balance = 0;\n    }\n\n    function registerUserAsSeller(string memory memberName) public payable {\n        require(members[msg.sender], \"User not registered\");\n        require(\n            msg.value >= 0.1 ether,\n            \"Deposit money should be atleast 0.1 Ether\"\n        );\n\n        address senderAddress = msg.sender;\n        accounts[senderAddress].isSeller = true;\n        accounts[senderAddress].name = memberName;\n        accounts[senderAddress].bankGuarantee = msg.value;\n    }\n\n    function isUserSeller() public view returns (bool) {\n        return accounts[msg.sender].isSeller;\n    }\n\n    function getSellerBalance()\n        public\n        view\n        isSeller(msg.sender)\n        returns (uint256)\n    {\n        return accounts[msg.sender].balance;\n    }\n\n    function getOrderStatus(string memory orderId)\n        public\n        view\n        returns (PaymentStatus)\n    {\n        return ordersPlaced[orderId].paymentStatus;\n    }\n\n    function withdrawBalance() public payable isSeller(msg.sender) {\n        uint256 bal = accounts[msg.sender].balance;\n        require(bal > 0, \"Balance must be greater than zero\");\n        msg.sender.transfer(bal);\n        accounts[msg.sender].balance = 0;\n    }\n\n    function unregisterUser(address payable userAddress)\n        public\n        payable\n        onlyOwner\n    {\n        require(members[userAddress], \"User not registered\");\n\n        members[userAddress] = false;\n\n        uint256 bankG = accounts[userAddress].bankGuarantee;\n        uint256 bal = accounts[userAddress].balance;\n        userAddress.transfer(bankG + bal);\n\n        accounts[userAddress].isSeller = false;\n        accounts[userAddress].bankGuarantee = 0;\n        accounts[userAddress].balance = 0;\n    }\n\n    function payForOrder(\n        address payable sellerAddr,\n        string memory orderId,\n        string memory productId,\n        string memory productName,\n        uint256 productPrice,\n        uint256 paymentStatus\n    ) public payable isSeller(sellerAddr) {\n        if (paymentStatus == 1) {\n            payAmountForOrder(\n                sellerAddr,\n                orderId,\n                productId,\n                productName,\n                productPrice,\n                PaymentStatus.PARTIAL\n            );\n        } else {\n            payAmountForOrder(\n                sellerAddr,\n                orderId,\n                productId,\n                productName,\n                productPrice,\n                PaymentStatus.DONE\n            );\n        }\n    }\n\n    function payAmountForOrder(\n        address payable sellerAddr,\n        string memory orderId,\n        string memory productId,\n        string memory productName,\n        uint256 productPrice,\n        PaymentStatus paymentStatus\n    ) public payable isSeller(sellerAddr) {\n        uint256 amount = msg.value;\n\n        require(members[msg.sender], \"User not registered\");\n        require(productPrice > 0, \"Product Price must be greater than 0\");\n        if (paymentStatus == PaymentStatus.DONE) {\n            require(\n                productPrice == amount,\n                \"Value must be equal to Product Price\"\n            );\n        }\n\n        uint256 scCut = amount / 10;\n        accounts[sellerAddr].balance += scCut * 9;\n        balance += scCut;\n        //sellerAddr.transfer(scCut * 9);\n        // accounts[msg.sender].balance -= amount;\n\n        ordersPlaced[orderId].product_id = productId;\n        ordersPlaced[orderId].name = productName;\n        ordersPlaced[orderId].seller = sellerAddr;\n        ordersPlaced[orderId].buyer = payable(msg.sender);\n        if (paymentStatus == PaymentStatus.PARTIAL) {\n            ordersPlaced[orderId].amountPaid += amount;\n        } else {\n            ordersPlaced[orderId].amountPaid = amount;\n        }\n        ordersPlaced[orderId].price = productPrice;\n\n        ordersPlaced[orderId].paymentStatus = paymentStatus;\n        if (ordersPlaced[orderId].amountPaid >= productPrice) {\n            ordersPlaced[orderId].paymentStatus = PaymentStatus.DONE;\n        }\n    }\n\n    function refund(string memory orderId, address payable buyerAddress)\n        public\n        payable\n    {\n        require(msg.sender == ordersPlaced[orderId].seller, \"Seller Invalid\");\n        require(\n            ordersPlaced[orderId].amountPaid > 0,\n            \"Amount Paid should be greater than 0\"\n        );\n\n        uint256 amount = ordersPlaced[orderId].amountPaid;\n        amount = (amount / 10) * 9;\n        uint256 amountToSend = amount;\n        if (ordersPlaced[orderId].paymentStatus == PaymentStatus.PARTIAL) {\n            amountToSend = (amount / 100) * 90;\n        }\n\n        require(\n            msg.value == amountToSend,\n            \"Value must be equal to Send to Customer\"\n        );\n\n        buyerAddress.transfer(amountToSend);\n        accounts[msg.sender].balance -= amountToSend;\n\n        ordersPlaced[orderId].paymentStatus = PaymentStatus.REFUNDED;\n    }\n}\n",
  "sourcePath": "/Volumes/Workspace/University Work/Second Sem/CSE 526 Blockchain/Phase 2/blockchain-project/blocketplace-contract/contracts/Blocketplace.sol",
  "compiler": {
    "name": "solc",
    "version": "0.6.12+commit.27d51765.Emscripten.clang"
  },
  "schemaVersion": "3.4.3",
  "updatedAt": "2022-04-17T23:59:04.344Z",
  "networkType": "ethereum",
  "devdoc": {
    "kind": "dev",
    "methods": {},
    "version": 1
  },
  "userdoc": {
    "kind": "user",
    "methods": {},
    "version": 1
  }
}